:020000040800F2
:1000000098340120F90200080103000803030008E6
:1000100005030008070300080903000800000000AA
:100020000000000000000000000000004102000885
:100030000D030008000000009502000839100008B8
:100040001303000813030008130300081303000838
:100050001303000813030008130300081303000828
:100060001303000813030008130300081303000818
:100070001303000813030008130300081303000808
:1000800013030008130300081303000813030008F8
:1000900013030008130300081303000813030008E8
:1000A00013030008130300081303000813030008D8
:1000B00013030008130300081303000813030008C8
:1000C00013030008130300081303000813030008B8
:1000D00013030008130300081303000813030008A8
:1000E0001303000813030008130300081303000898
:1000F0001303000813030008130300081303000888
:100100001303000813030008130300081303000877
:100110001303000813030008130300081303000867
:100120001303000813030008130300081303000857
:100130001303000813030008130300081303000847
:100140001303000813030008130300081303000837
:100150001303000813030008130300081303000827
:100160001303000813030008130300081303000817
:100170001303000813030008130300080000000025
:10018000130300081303000800F002F800F049F818
:100190000AA090E8000C82448344AAF10107DA45E2
:1001A00001D100F03EF8AFF2090EBAE80F0013F0EB
:1001B000010F18BFFB1A43F001031847941C0000FD
:1001C000B41C0000103A24BF78C878C1FAD852078E
:1001D00024BF30C830C144BF04680C6070470000C1
:1001E0000023002400250026103A28BF78C1FBD840
:1001F000520728BF30C148BF0B607047642900F028
:10020000DB80002070471FB501F010FE9DE8030061
:1002100000F0ECFC00F000FA1FBD10B500F065FA2C
:1002200010BD00F0BCFA1146FFF7EDFF01F002F837
:1002300000F0ACFC03B4FFF7F0FF03BC00F048FE95
:100240002A4B19680868B0E8F04F80F30988BFF3BB
:100250006F8F4FF0000080F311887047000000009E
:1002600006480068006880F3088862B661B6BFF38C
:100270004F8FBFF36F8F00DF00BF00BF08ED00E0BE
:10028000DFF80C00016841F470010160704700BFA5
:1002900088ED00E0EFF30980BFF36F8F134B1A680E
:1002A0001EF0100F08BF20ED108A20E9F04F1060FB
:1002B00008B44FF0500080F31188BFF34F8FBFF3A5
:1002C0006F8F01F079FB4FF0000080F3118808BCBC
:1002D00019680868B0E8F04F1EF0100F08BFB0ECC6
:1002E000108A80F30988BFF36F8F704704000020E5
:1002F000EFF3058070470000094880470948004730
:10030000FEE7FEE7FEE7FEE7FEE7FEE7FEE7FEE7C5
:10031000FEE7FEE704480549054A064B7047000022
:100320006D10000889010008982E012098340120E2
:1003300098300120983001200FB4044910B503AA69
:10034000029800F019F910BC5DF814FB902D012003
:100350002DE9F0410E460446002020622046E16867
:10036000884730B3252805D0D4E901219047206A79
:10037000401CF2E7E168204600278847050018D0B6
:10038000A5F14100192802D820354FF40067324604
:10039000294620462760FFF731FF40B1012804D0ED
:1003A000F61D26F007060836D8E7361DD6E728469C
:1003B000DAE7206ABDE8F0812DE9F0410646002425
:1003C00010687529314616A510D0AFF300800028BB
:1003D00002DA404213A507E031688A0701D512A569
:1003E00002E0490704D511A5012401E0AFF3008024
:1003F00000210A2206F1240709E0B0FBF2FCB0FB61
:10040000F2F302FB1C00303078541846491C0028D7
:10041000F3D123462A463046BDE8F04100F053B8F8
:10042000000000002D0000002B0000002000000054
:1004300002F0FF0343EA032242EA024200F0B0B8AE
:100440004FF0013C50F8042B51F8043B9A4221D163
:10045000A2EB0C03934313EACC1317D150F8042BEF
:1004600051F8043B9A4215D1A2EB0C03934313EAD3
:10047000CC130BD150F8042B51F8043B9A4209D10C
:10048000A2EB0C03934313EACC13DBD04FF0000034
:10049000704700BFD01A01BAB1FA81F101F018011A
:1004A00022FA01F0CB40C1F12001DBB2C0B2C01A88
:1004B0002CFA01F3D11A914311EAC311E6D1704726
:1004C0007047704770472DE9F0470D4699469246B0
:1004D000044600F124080168880604D5E06921F08B
:1004E0001001216000E00120A84201DD471B00E06F
:1004F0000027A1697A1902EB0900081AA061207887
:10050000C00602D42046AFF30080002608E0D4E9FC
:1005100001211AF806009047206A401C761C2062D0
:100520004E45F4DB2078C0060AD52046AFF30080A4
:1005300006E0D4E9012130209047206A401C206267
:10054000381EA7F10107F4DC07E0D4E9012118F80F
:1005500005009047206A401C2062281EA5F1010575
:10056000F3DC2046AFF300802078000602D502209D
:10057000BDE8F0870120FBE7074B70B50D467B44D3
:1005800000F033F80446284600F042F810B14FF06E
:10059000FF3070BD204670BD990C00004FF0000286
:1005A0000429C0F0128010F0030C00F0D380CCF1CD
:1005B000040CBCF1020F18BF00F8012BA8BF20F8F3
:1005C000022BA1EB0C0100F0C5B85FEAC17C24BF8F
:1005D00000F8012B00F8012B48BF00F8012B7047F1
:1005E00001694A1C02610878704700B58FB0CDE9F7
:1005F00001310021059105497944CDE903101146E7
:100600006846FFF7A5FE0FB000BD0000E5FFFFFF45
:10061000007B00F08000704710B54248542100F084
:1006200097F84148542100F093F84048542100F0D5
:100630008FF83F493B483C4A3F4B08603D490A60C0
:100640003A491960531C0365481C10650120086570
:100650003B48344A39A1784400F0FCF920B93848C5
:1006600078440A3800F09BFA37482F4A35A178447D
:1006700000F0F0F920B9344878440A3800F08FFAD5
:1006800032482A4A2FA1784400F0E4F920B92F48D3
:1006900078440A3800F083FA40232248DC00002125
:1006A000224600F0B3F920B125487844543800F0D0
:1006B00076FA1D4822464023002100F0A7F920B118
:1006C00021487844543800F06AFA1848224610232A
:1006D000002100F09BF9002806D01C487844BDE8B2
:1006E0001040563800F05BBA10BD104870B5006D70
:1006F00020F001040B4800F023FA0B4800F020FA28
:100700000A4800F01DFA09E0206D20F0010520469E
:1007100000F016FA204600F067F82C46002CF3D1C2
:1007200070BD00003C2D0120902D0120E42D012002
:10073000680000206C0000207000002072000000A3
:10074000DC17000077000000CB170000BB1700008B
:100750004FF0000200B5134694469646203922BF5A
:10076000A0E80C50A0E80C50B1F12001BFF4F7AFA5
:10077000090728BFA0E80C5048BF0CC05DF804EB87
:10078000890028BF40F8042B08BF704748BF20F8F5
:10079000022B11F0804F18BF00F8012B70477546EF
:1007A00000F004FAAE4605006946534620F0070003
:1007B000854618B020B5FFF7ADFDBDE820404FF0ED
:1007C00000064FF000074FF000084FF0000B21F03B
:1007D0000701AC46ACE8C009ACE8C009ACE8C00908
:1007E000ACE8C0098D46704770B50446051F00F09F
:1007F000E1F90068002C14BF446870BD002C18BFDC
:10080000AC423CBF20466468F8D301680A18AA428B
:1008100018BF456003D12A68054611440160286865
:100820004119A1421CBF6C6070BD6168696021689C
:100830000844286070BD2DE9F04705460C46C8689D
:1008400020F4201040F48000C860800602D50846DD
:1008500000F0FDFAE06841F282014FF0FF390140FB
:10086000022903D0204600F09BFAB5E000F42041B5
:10087000B1F5004F0FD1C00306D56168E06A884228
:1008800000D80846606006E02069E0626060606948
:1008900000F031FCA061A0680022EEB200280DDA61
:1008A000E1688B050AD4C043A06041F49030226017
:1008B000E0606068411C61600670A5E0E0689046F9
:1008C000226040F40050E060206968BB606900F07D
:1008D00024FC012704F12405A0B1A08910F4407F75
:1008E00008D0E06900F0B1F9206118B1E06840F487
:1008F000006016E0E7612561E06820F4407040F494
:1009000080600EE0E06900F0A0F900282061F1D0DD
:10091000E06840F4006010F4407FE06002D140F4F1
:100920008070E06020696060E06825696FF0010A0E
:10093000C1051FD56168E06A884200D80846411B9E
:1009400004D02246284600F035FAF0BBE0680102E8
:1009500003D5E562C4E9015854E0691CE1626160B5
:10096000E16940F48030491EC4E9021030462E701F
:10097000BDE8F087010202D500F480320AE0606829
:10098000411C61600670E0680A2E40F48030E0602F
:1009900006D00022E16A6068814203D90B4602E07A
:1009A0000122F7E70346A7895B1B7F0503D4E769AC
:1009B0009F4200DDE2B1814200D80146E5620F1A94
:1009C000C4E90158002B09DD00E005E02246194684
:1009D000284600F0EFF908B14846C9E747B1A069D9
:1009E000E5626560C01BA061E06840F01000E06057
:1009F000E068000208D56168A069E562491B084407
:100A00006560A0615046B3E73046B1E770B5C46891
:100A1000A50713D0650211D4B2F5807F09D0B2F5D5
:100A2000007F06D0B2F5806F08D1012300F12401C8
:100A300006E05D1E6FF07F46B54201D3012070BD18
:100A40000161C361416024F470611143C160002001
:100A500070BD00002DE9F0410C46074616461046D1
:100A600000F06EF82078611C61280AD0722802D04C
:100A700077283CD102E00125002405E0022504246A
:100A800002E0082448F2020511F8010B2B2806D0D9
:100A9000622809D011F8010C74280AD00BE045F047
:100AA000030544F00204EFE745F0040544F00104B7
:100AB000EAE744F010043846214600F041FB411CAF
:100AC00015D00021316171604FF40071F560F16162
:100AD0007061200704D530460222002100F0E4F8BE
:100AE000306D40F0010030653046BDE8F0810020F7
:100AF000FBE72DE9F0410D460646104C206DC1077D
:100B000004D0410804D020F00104F7E722460EE0AB
:100B1000542000F09AF807000ED0206D47F0010134
:100B20000843542120653846FFF712FE3A4629460D
:100B30003046BDE8F0418DE70020D6E73C2D01208E
:100B40002DE9F04704464FF000094FF0FF37C56824
:100B5000D4E90486A80707D0204600F055F93046AE
:100B600000F0B6FA002802DA3846BDE8F08728051A
:100B700002D54046FFF738FE4C212046FFF7E8FD3E
:100B8000206D20F0010020654846EEE710B50446D0
:100B9000AFF300802046BDE81040FFF74BBB10B517
:100BA00000F07CF9BDE8104000F072B900487047D1
:100BB000382E012000487047402E012070477047B2
:100BC0007047704738B504460A4600206946AFF3BF
:100BD0000080002808BF38BD02460099204600F07A
:100BE00084F9012038BD012000F0D3B9F8B5AFF386
:100BF0000080054600200C46102000BF0646A819BC
:100C0000A0420DD9324669460020AFF300800700AC
:100C100008BF00F0BEF90098A04218BF0546C419ED
:100C2000FFF7C8FF05600746F01D20F007004619D2
:100C3000284600F053F9B44208BFF8BDA21B314664
:100C40003868BDE8F84000F050B970B50646FFF7C7
:100C5000B1FF056806F10B0020F00704B4429CBF09
:100C6000002070BD2B466A68BAB11068A04210D34C
:100C700004F1080188423CBF5068586007D35168AE
:100C8000101941601168091B016058601460101D43
:100C900070BD13465268002AE7D121462846FFF767
:100CA00091FF0028DED170BD2DE9F04104461646C3
:100CB0000D464769007B80072ED0384600F02DFA9C
:100CC00050BB3EB3012E02D0022E25D104E02046B7
:100CD00000F025F905441DE0384600F00CFAE16803
:100CE000002841F01001E16005DA204600F058F8D4
:100CF0000120BDE8F081C9030BD56268E16A914229
:100D000000D81146A26911442269891A814200DD86
:100D100008460544002D01DA0220EAE7E16A60682E
:100D2000E268814206D29103E06203D522F40031E9
:100D300041F01002A6690027AE4213DCE16A81424D
:100D400001D90B4600E0034603EB060C2369ACEB2C
:100D5000030CAC4506DD814201D98C4600E0844697
:100D60009C4505D1A760276042F02000A5620DE0F8
:100D7000AD1BE669AE1B8142A66000D90846C01AC9
:100D8000281A20605819606022F0200003490840AA
:100D9000E060002084F84870ABE70000BFCFD7FFC9
:100DA000C16821F4001141F08001C160002181601F
:100DB000016070472DE9F047814614460E464FF01A
:100DC000FF383248D5685769054209D03846A169CD
:100DD00000F0EAF9002811DB2C48C0430540E5602B
:100DE0002B4632464946384600F0F4F9A16920F016
:100DF0000042B21A11440028A16103D02046FFF737
:100E0000CFFF4046BDE8F08770B504460569C06A6B
:100E10006168884200D80846E16821F42011E16049
:100E2000C90312D5A84208D02246411B2846FFF725
:100E3000C1FF10B14FF0FF3070BD0020E562C4E982
:100E40000150E06820F48030E060002070BD10B5F3
:100E50000446C06820F02000E060A16AA0698842D2
:100E60000DD02046FFF7D0FFE06820F4405040F05E
:100E70001000E060A06AA0612069E062606044F256
:100E80004001E0688843E06010BD000010000200EF
:100E9000002801D000F01CB87047000010B50146D2
:100EA00002A000F05DF8012010BD00005349475238
:100EB000545245443A2052656469726563743A201D
:100EC00063616E2774206F70656E3A200000000029
:100ED00001491820ABBEFEE7260002000021016098
:100EE000C0E90110704710207047034640688C46E7
:100EF000002818BF88423CBF03464068F8D31868F2
:100F00001844884207D00CF1030020F00700001DB0
:100F1000411A521A0146081D0A60FFF765BC10B558
:100F20000146C268900703D0900607D5886A0AE098
:100F300000F03EF801210160881E10BD8B694868F1
:100F400018440B69C01A91F848301BB191F8491048
:100F5000401A10BD1103FCD50028FADD401E10BD5B
:100F600070B505460C460A2000E06D1C00F018F82C
:100F700035B128780028F8D102E0641C00F010F8A0
:100F800014B120780028F8D1BDE870400A2000F0A4
:100F900007B810B500F010F8BDE81040FFF778BFB3
:100FA00008B569468DF800000320ABBE08BD704748
:100FB00000487047382E012010B5012805D00021C7
:100FC00003A0FFF7CDFF012010BD09A1F8E7000045
:100FD00053494752544D454D3A204F7574206F6622
:100FE0002068656170206D656D6F7279000000008A
:100FF0003A2048656170206D656D6F727920636F6E
:1010000072727570746564000A49096801F0010123
:1010100071B108498039096801F0010141B100BF8F
:101020004FF0604109680029FAD04FF0604210701B
:1010300070470000800E00E010B500BF502080F324
:101040001188BFF34F8FBFF36F8F00BF00F0C8FD53
:1010500018B14FF080500449086000BF002080F3B1
:10106000118800BF10BD000004ED00E014480068C6
:1010700040F47000124908601248006840F0010016
:101080001049086000200F49083108600D480068C9
:101090000D4908400B4908600C48091D0860081FED
:1010A000006820F48020091F0860002005490C31E9
:1010B00008604FF000600249803908607047000006
:1010C00088ED00E000380240FFFFF6FE10300024FB
:1010D00001466FF40040084420B1012804D00228E2
:1010E00006D103E0002070470020FCE70020FAE76B
:1010F0004FF0FF30F7E701466FF40040084420B19D
:10110000012804D0022806D103E000207047002007
:10111000FCE70020FAE70020F8E701466FF4004002
:10112000084420B1012804D0022806D103E00120A0
:1011300070470120FCE70120FAE70020F8E70000F3
:1011400070B504460D4614B94FF0FF3070BD2078DD
:101150003A281AD10EA12046FFF772F910B948F2C9
:101160000100F3E70CA12046FFF76AF910B948F235
:101170000200EBE70AA12046FFF762F910B948F236
:101180000300E3E74FF0FF30E0E74FF0FF30DDE72B
:101190003A535444494E00003A5354444F55540076
:1011A0003A5354444552520002466FF400401044F2
:1011B00020B1012805D0022809D105E04FF0FF3009
:1011C00070474FF0FF30FBE74FF0FF30F8E74FF08C
:1011D000FF30F5E72DE9F04106460C4615469846E6
:1011E0006FF40040304420B1012806D0022811D10C
:1011F0000EE04FF0FF30BDE8F08105E014F8017B10
:10120000384600F069FA6D1E002DF7D10020F2E794
:101210000020F0E74FF0FF30EDE78A68002A01DC9C
:10122000FFF709BB521E8A604A68C0B2531C4B606C
:10123000107070471CB50020012103469622CDE9AD
:10124000001004A1044800F09BFC00F069FB0020A2
:101250001CBD000054310000691800082DE9F04160
:1012600005460E461C4807681C480068001D00F033
:1012700039FA50B91948006890F82C1001208840BC
:1012800017490968814316480160681C38B936B1AE
:1012900012480168091D134800F062FA1AE07C192F
:1012A0000E4800684460BC4207D20C480168091D22
:1012B0000D48006800F03AFA0CE008480168091D82
:1012C0000A48006800F032FA09480068844201D2F6
:1012D00007480460BDE8F0811800002004000020E9
:1012E0001C000020280100200C0000200800002025
:1012F0003400002010B5044600F03EFA244800688F
:10130000401C234908602348006840B92148046014
:101310000846006801280DD100F0FEF80AE01E48DA
:10132000006838B91B480068C06AE16A884201D881
:101330001848046019480068401C184908600846AD
:101340000068206494F82C10012088401449096832
:10135000084313490860E16A01EB8101114A02EB7D
:101360008100211D00F0FCF900F030FA0A48006805
:1013700068B108480068C06AE16A884207D24FF045
:10138000805009490860BFF34F8FBFF36F8F10BDC6
:101390001400002004000020200000203000002065
:1013A0001C0000207400002004ED00E070B523E074
:1013B00000F0FAFA1348006808B9012000E00020A4
:1013C000054600F0B1FCBDB900F0D6F90D48C06883
:1013D000C468201D00F086F90B480068401E0A49C9
:1013E00008600A480068401E0849086000F0EEF9ED
:1013F000204600F00DF800BF044800680028D7D14F
:1014000070BD000014010020140000201000002016
:1014100010B50446206B00F0F7F9204600F0F4F90F
:1014200010BD0000094A22F00700094A106000229E
:10143000074B5A60074A084B5A6000221A6001465F
:10144000044A4A601A460A607047000044010020BE
:1014500040000020F82B01004800002000BFFFF7EB
:10146000A5FFFCE72DE9F05F82460F4690469B46BC
:101470000A9E0C9C4FEA8801A522206BFEF7D8FF3C
:10148000A8F10100216B01EB800929F0070909F09F
:10149000070008B9012000E0002050B900BF50202B
:1014A00080F31188BFF34F8FBFF36F8F00BF00BF72
:1014B000FEE7002507E0795D04F134004155785DD1
:1014C00000B902E06D1C0A2DF5D300BF00213D20BC
:1014D0000155052E00D30426E662A6640020E064D0
:1014E000201D00F020F904F1180000F01CF924611F
:1014F000C6F10500A06164620020206584F85400F4
:101500005A465146484600F0D1F820600B9808B181
:101510000B980460BDE8F09F10B5002407E004EBD1
:1015200084010F4A02EB810000F0F0F8641C052CE6
:10153000F5D30C4800F0EAF80B4800F0E7F80B4848
:1015400000F0E4F80A4800F0E1F80A4800F0DEF89C
:1015500004480949086004480849086010BD0000B3
:1015600074000020D8000020EC00002000010020C2
:101570001401002028010020080000200C00002099
:101580000A490968096809B9012100E0002121B16F
:101590004FF0FF31064A116006E004490968C96846
:1015A000C868034A416811607047000008000020C5
:1015B000340000200E480068401C08B9012000E0FB
:1015C000002050B900BF502080F31188BFF34F8F27
:1015D000BFF36F8F00BF00BFFEE700BF502080F356
:1015E0001188BFF34F8FBFF36F8F00BF00BFFEE7BF
:1015F000580000202DE9F04104464FF0000800F0AB
:10160000D3F92548006820B9FFF70CFF01202249D3
:10161000086044B1083404F0070020B104F007006A
:10162000C0F108000444002C31D01C4884422ED262
:101630001B4F3846056801E02F462D686868A042B8
:1016400002D228680028F7D1164885421FD0386892
:1016500000F10808286838606868001B102810D955
:101660002E196868001B70606C6071680C4800E09F
:101670000068026852688A42FAD3026832600660E3
:1016800000BF094968680968081A0749086000F03E
:101690004BFB4046BDE8F08154000020F82B0100D0
:1016A000400000204800002050000020001F4FF0A4
:1016B00080730360001F21F001030360001F054BCE
:1016C000036014380260001F6FF0020303602038CB
:1016D00070470000B515000800B503461846FFF72F
:1016E00093FC00BD01460A69D1E901309860D1E957
:1016F000010358605068884201D18868506000201A
:1017000008611068401E10601068704700F1080101
:1017100041604FF0FF31816000F10801C16001615B
:1017200000210160704700210161704710B5024639
:101730000B685C1C0CB9106907E002F1080000E0BE
:101740004068446824689C42FAD944684C604C68FC
:10175000A160886041600A611468641C146010BD57
:1017600042684A6093688B60936859609160086131
:1017700003685B1C0360704700BF502080F3118832
:10178000BFF34F8FBFF36F8F00BF0E480068401C40
:101790000C49086008460068012812D10A48006810
:1017A000C0B208B9012000E0002050B900BF5020AD
:1017B00080F31188BFF34F8FBFF36F8F00BF00BF5F
:1017C000FEE770475800002004ED00E00D48006877
:1017D00050B900BF502080F31188BFF34F8FBFF383
:1017E0006F8F00BF00BFFEE706480068401E054936
:1017F00008600846006820B9002080F3118800BF07
:1018000000BF70475800002070B506463546B6B197
:10181000083D2C4600F0C8F86168094800E00068FF
:10182000026852688A42FAD302682260046005495D
:101830006068096808440349086000F075FA70BDE3
:101840004000002050000020064800684FF47A71E4
:10185000B0FBF1F0401E4FF0E02148610720086125
:10186000704700006400002008A0FEF765FD00BF7F
:101870000E4801680068401C0C4B18600CA0FEF775
:101880005BFD4FF47A7000F01DF8F1E7436C6F6375
:101890006B205461736B2053746172742052756EA7
:1018A0006E696E672E2E2E0A0000000000000020D8
:1018B0005365636F6E647320436F756E743A2025B1
:1018C000640A000070B504460025D4B112480068CF
:1018D00008B9012000E0002050B900BF502080F37B
:1018E0001188BFF34F8FBFF36F8F00BF00BFFEE7BC
:1018F00000F05AF800212046FFF7B0FC00F014FA7F
:1019000005463DB94FF0805004490860BFF34F8F42
:10191000BFF36F8F70BD00003C00002004ED00E0BD
:101920001CB51A4800210B468222CDE9001018A1EF
:10193000194800F025F90446012C15D100BF5020AC
:1019400080F31188BFF34F8FBFF36F8F00BF4FF04D
:10195000FF30124908600120114908600020114938
:10196000086000F06FF810E0601C08B1012000E092
:10197000002050B900BF502080F31188BFF34F8F73
:10198000BFF36F8F00BF00BFFEE71CBD3800002013
:1019900049444C45000000005D140008340000205C
:1019A000200000201800002002480068401C014967
:1019B000086070473C0000201D48006818B10120F5
:1019C0001C49086032E000201A4908601A48006883
:1019D000B0FA80F0C0F11F0101EB8100174A52F804
:1019E000200008B1012000E0002050B900BF5020C5
:1019F00080F31188BFF34F8FBFF36F8F00BF00BF1D
:101A0000FEE701EB81020D4B03EB82004268526856
:101A1000426000F108024368934202D14268526872
:101A200042604268D268064B1A6000BF70470000EF
:101A30003C000020280000201C0000207400002032
:101A4000040000201CB5474800684749884201D07F
:101A5000012000E0002050B900BF502080F3118821
:101A6000BFF34F8FBFF36F8F00BF00BFFEE73D484E
:101A700000683D49491E884201D0012000E0002055
:101A800050B900BF502080F31188BFF34F8FBFF3D0
:101A90006F8F00BF00BFFEE7344908460078019011
:101AA000FF200A4610700846007800909DF800005C
:101AB00000F0F0009DF80020904201D1012000E0EC
:101AC000002050B900BF502080F31188BFF34F8F22
:101AD000BFF36F8F00BF00BFFEE79DF8000000F06E
:101AE0005000234A10700720224A106009E0214864
:101AF0000068401E1F4A10609DF800004006000E5E
:101B000000909DF8000000F080008028EFD0194878
:101B100000680002174A10601046008800F4E06078
:101B20001060124A019810700E482030006840F48E
:101B300070000C49203108600846006840F0704091
:101B40000860FFF781FE00200B490860FEF798FB54
:101B50000A48006840F0404008490860FEF780FBF2
:101B600000201CBD00ED00E071C20F4100E400E068
:101B70005C000020600000205800002034EF00E0EE
:101B80002DE9FF4F85B0804689461746DDE912AB47
:101B9000B800FFF72FFD064656B15820FFF72AFD83
:101BA00004460CB1266304E03046FFF72DFE00E04A
:101BB00000247CB10020CDE900ABCDE902403A46DB
:101BC00049464046089BFFF74DFC2046FFF792FB35
:101BD000012501E04FF0FF35284609B0BDE8F08F40
:101BE0002DE9F0414FF0000844480068002877D103
:101BF00043480068451C4248056015BB41480068E1
:101C0000006808B9012000E0002050B900BF502052
:101C100080F31188BFF34F8FBFF36F8F00BF00BFFA
:101C2000FEE7384807683848006836490860364893
:101C3000076036480068401C34490860FFF7A0FC84
:101C400000BF3348006885423CD300BF2D48006880
:101C5000006808B9012000E0002020B14FF0FF30FB
:101C60002B4908602DE027480068C068C468666892
:101C7000B54202D22648066023E0201DFFF732FD60
:101C8000A06A18B104F11800FFF72CFD94F82C108D
:101C9000012088401F49096808431E490860E16A1D
:101CA00001EB81011C4A02EB8100211DFFF758FD69
:101CB0001A49E06A0968C96A8842C7D34FF0010827
:101CC000C4E700BF15480068C06A00EB80001249F5
:101CD00051F82000012801D94FF0010805E0FFE785
:101CE0000F480068401C0E4908600E48006808B1A3
:101CF0004FF001084046BDE8F08100003C000020A4
:101D000018000020080000200C0000202C000020FB
:101D1000340000201C00002074000020040000207B
:101D2000240000202800002070B50024002636483A
:101D3000006850B900BF502080F31188BFF34F8F67
:101D4000BFF36F8F00BF00BFFEE7FFF715FD2E4802
:101D50000068401E2C4908600846006800284FD1E2
:101D60002A48006800284BD024E02948C068C4688D
:101D700004F11800FFF7B6FC201DFFF7B3FC94F840
:101D80002C10012088402349096808432149086034
:101D9000E16A01EB8101204A02EB8100211DFFF77E
:101DA000DFFC1E49E06A0968C96A884202D3012043
:101DB0001B4908601648006808B9012000E00020AF
:101DC0000028D2D00CB1FFF7DBFB1648056865B1DF
:101DD00000BFFFF705FF10B10120114908606D1E1B
:101DE000002DF6D100200F4908600D48006838B179
:101DF000012630070C490860BFF34F8FBFF36F8F88
:101E0000FFF7E4FC304670BD3C00002014000020C9
:101E1000000100201C0000207400002004000020AD
:101E2000280000202400002004ED00E04FF0407066
:101E3000E1EE100A70473A535444494E003A535465
:101E4000444F5554003A5354444552520000000048
:101E5000701E00080000002074000000C40100088B
:101E6000E41E00087400002024340100E001000892
:101E70000000000000000000000000000000000062
:101E80000000000000000000000000000000000052
:101E90000000000000000000000000000000000042
:101EA0000000000000000000000000000000000032
:101EB0000000000000000000000000000000000022
:101EC000F82B010000000000AAAAAAAA0000000046
:101ED000000000000024F4000000000000000000EA
:041EE00000000000FE
:040000050800018965
:00000001FF
