:020000040800F2
:1000000088330120E1020008E9020008EB02000841
:10001000ED020008EF020008F102000800000000F5
:10002000000000000000000000000000290200089D
:10003000F5020008000000007D020008F902000837
:10004000FB020008FB020008FB020008FB0200089C
:10005000FB020008FB020008FB020008FB0200088C
:10006000FB020008FB020008FB020008FB0200087C
:10007000FB020008FB020008FB020008FB0200086C
:10008000FB020008FB020008FB020008FB0200085C
:10009000FB020008FB020008FB020008FB0200084C
:1000A000FB020008FB020008FB020008FB0200083C
:1000B000A1040008FB020008FB020008FB02000884
:1000C000FB020008FB020008FB020008FB0200081C
:1000D000FB020008FB020008FB020008FB0200080C
:1000E000FB020008FB020008FB020008FB020008FC
:1000F000FB020008FB020008FB020008FB020008EC
:10010000FB020008FB020008FB020008FB020008DB
:10011000FB020008FB020008FB020008FB020008CB
:10012000FB020008FB020008FB020008FB020008BB
:10013000FB020008FB020008FB020008FB020008AB
:10014000FB020008FB020008FB020008FB0200089B
:10015000FB020008FB020008FB020008FB0200088B
:10016000FB020008FB020008FB020008FB0200087B
:10017000FB020008FB020008FB0200080000000070
:10018000FB020008FB02000800F002F800F03CF857
:100190000AA090E8000C82448344AAF10107DA45E2
:1001A00001D100F031F8AFF2090EBAE80F0013F0F8
:1001B000010F18BFFB1A43F0010318476C0F000032
:1001C0008C0F0000103A24BF78C878C1FAD85207C3
:1001D00024BF30C830C144BF04680C6070470000C1
:1001E0000023002400250026103A28BF78C1FBD840
:1001F000520728BF30C148BF0B6070471FB500F0E1
:100200008DFF1FBD10B510BD00F0DEF81146FFF7E1
:10021000F5FF00F0ABF900F0FCF803B4FFF7F2FFD4
:1002200003BC00F003F900002A4B19680868B0E825
:10023000F04F80F30988BFF36F8F4FF0000080F319
:10024000118870470000000006480068006880F3CD
:10025000088862B661B6BFF34F8FBFF36F8F00DFC0
:1002600000BF00BF08ED00E0DFF80C00016841F4BA
:1002700070010160704700BF88ED00E0EFF3098076
:10028000BFF36F8F134B1A681EF0100F08BF20EDDD
:10029000108A20E9F04F106008B44FF0500080F34E
:1002A0001188BFF34F8FBFF36F8F00F0E3FC4FF067
:1002B000000080F3118808BC19680868B0E8F04FA6
:1002C0001EF0100F08BFB0EC108A80F30988BFF34E
:1002D0006F8F704700000020EFF30580704700002B
:1002E0000948804709480047FEE7FEE7FEE7FEE7CA
:1002F000FEE7FEE7FEE7FEE7FEE7FEE70448054906
:10030000054A064B704700003D04000889010008BB
:10031000882D012088330120882F0120882F01207B
:1003200002F0FF0343EA032242EA024200F005B86A
:100330007047704770474FF000020429C0F01280E8
:1003400010F0030C00F01B80CCF1040CBCF1020F88
:1003500018BF00F8012BA8BF20F8022BA1EB0C015D
:1003600000F00DB85FEAC17C24BF00F8012B00F853
:10037000012B48BF00F8012B70474FF0000200B579
:10038000134694469646203922BFA0E80C50A0E8B8
:100390000C50B1F12001BFF4F7AF090728BFA0E866
:1003A0000C5048BF0CC05DF804EB890028BF40F832
:1003B000042B08BF704748BF20F8022B11F0804F74
:1003C00018BF00F8012B7047754600F02BF8AE46B9
:1003D00005006946534620F00700854618B020B551
:1003E000FFF78CFFBDE820404FF000064FF00007FC
:1003F0004FF000084FF0000B21F00701AC46ACE8CD
:10040000C009ACE8C009ACE8C009ACE8C0098D4639
:10041000704710B50446AFF300802046BDE8104099
:10042000FFF7FBBE00487047282D01200149182026
:10043000ABBEFEE7260002007047000014480068CB
:1004400040F47000124908601248006840F0010052
:100450001049086000200F49083108600D48006805
:100460000D4908400B4908600C48091D0860081F29
:10047000006820F48020091F0860002005490C3125
:1004800008604FF000600249803908607047000042
:1004900088ED00E000380240FFFFF6FE1030002437
:1004A00010B54FF08040008A20F001004FF08041ED
:1004B000088200F0C3FC10BD2A48006840F0080024
:1004C000284908602848006840F0804026490860B4
:1004D0000846006820F000400860081D006820F40D
:1004E0000040091D0860081D006840F08040091D9B
:1004F00008600846006820F000400860081D006899
:1005000020F08040091D08600846006820F0004087
:1005100008601548006840F080501349086008469C
:10052000006820F000500860081D006820F480403A
:10053000091D0860081D006840F08050091D086012
:100540000846006820F000500860081D006820F090
:100550008050091D08600846006820F000500860BF
:100560007047000030380240000C02401CB50020EB
:1005700002461C4B19684FF6FF0319401A4B0B43F8
:1005800043EA0221174B196000BF1C20FF210028FD
:1005900008DA0A07140E134A0C3200F00F031B1F6F
:1005A000D45403E00A07130E104A135400BFFFF798
:1005B00083FF0020012103463222CDE900100CA167
:1005C0000D4800F055FC0020012103463222CDE900
:1005D00000100AA10B4800F04BFC00F0FFFA00BF2E
:1005E000FEE700000CED00E00000FA0500E400E08A
:1005F0005461736B31000000090600085461736B8D
:10060000320000003D06000808B5002000900FE011
:100610000848006880F48040064908600020009087
:1006200002E00098401C0090034900988842F8D3EB
:10063000EEE70000140C024020A1070008B50020DE
:1006400000900FE00848006880F400400649086008
:100650000020009002E00098401C009003490098A0
:100660008842F8D3EEE70000140C024090D003005B
:1006700010B5044600F01EFA24480068401C2349C7
:1006800008602348006840B92148046008460068B3
:1006900001280DD100F0FEF80AE01E48006838B9C4
:1006A0001B480068C06AE16A884201D818480460A3
:1006B00019480068401C1849086008460068206412
:1006C00094F82C1001208840144909680843134904
:1006D0000860E16A01EB8101114A02EB8100211DF2
:1006E00000F0DCF900F010FA0A48006868B1084828
:1006F0000068C06AE16A884207D24FF08050094919
:100700000860BFF34F8FBFF36F8F10BD1000002044
:10071000000000201C0000202C00002018000020F9
:100720006000002004ED00E070B523E000F09AFACC
:100730001348006808B9012000E00020054600F0D9
:100740006BFCBDB900F0B6F90D48C068C468201D47
:1007500000F080F90B480068401E0A4908600A480A
:100760000068401E0849086000F0CEF9204600F0FD
:100770000DF800BF044800680028D7D170BD000004
:1007800000010020100000200C00002010B50446DD
:10079000206B00F0D7F9204600F0D4F910BD00001E
:1007A000094A22F00700094A10600022074B5A60EC
:1007B000074A084B5A6000221A600146044A4A6000
:1007C0001A460A6070470000300100203C000020FB
:1007D000F82B01004400002000BFFFF7A5FFFCE755
:1007E0002DE9F05F82460F4690469B460A9E0C9C80
:1007F0004FEA8801A522206BFFF792FDA8F10100C6
:10080000216B01EB800929F0070909F0070008B9FD
:10081000012000E0002050B900BF502080F3118873
:10082000BFF34F8FBFF36F8F00BF00BFFEE7002500
:1008300007E0795D04F134004155785D00B902E0CC
:100840006D1C0A2DF5D300BF00213D200155052E5A
:1008500000D30426E662A6640020E064201D00F0B8
:100860001AF904F1180000F016F92461C6F1050028
:10087000A06164620020206584F854005A46514605
:10088000484600F0D1F820600B9808B10B9804603E
:10089000BDE8F09F10B5002407E004EB84010F4A87
:1008A00002EB810000F0EAF8641C052CF5D30C483B
:1008B00000F0E4F80B4800F0E1F80B4800F0DEF837
:1008C0000A4800F0DBF80A4800F0D8F80448094963
:1008D000086004480849086010BD0000600000205E
:1008E000C4000020D8000020EC00002000010020FF
:1008F0001401002004000020080000200A490968B3
:10090000096809B9012100E0002121B14FF0FF3150
:10091000064A116006E004490968C968C868034AC4
:100920004168116070470000040000203000002082
:100930000E480068401C08B9012000E0002050B9B2
:1009400000BF502080F31188BFF34F8FBFF36F8F2C
:1009500000BF00BFFEE700BF502080F31188BFF347
:100960004F8FBFF36F8F00BF00BFFEE75400002022
:100970002DE9F04104464FF0000800F073F92548D6
:10098000006820B9FFF70CFF01202249086044B13C
:10099000083404F0070020B104F00700C0F108009B
:1009A0000444002C31D01C4884422ED21B4F3846C0
:1009B000056801E02F462D686868A04202D22868C9
:1009C0000028F7D1164885421FD0386800F1080882
:1009D000286838606868001B102810D92E196868CC
:1009E000001B70606C6071680C4800E00068026871
:1009F00052688A42FAD302683260066000BF094931
:100A000068680968081A0749086000F005FB404655
:100A1000BDE8F08150000020F82B01003C000020D0
:100A2000440000204C000020001F4FF08073036042
:100A3000001F21F001030360001F054B0360143801
:100A40000260001F6FF0020303602038704700004F
:100A50003109000801460A69D1E901309860D1E9FD
:100A6000010358605068884201D1886850600020B6
:100A700008611068401E10601068704700F108019E
:100A800041604FF0FF31816000F10801C1600161F8
:100A900000210160704700210161704742684A608F
:100AA00093688B60936859609160086103685B1C70
:100AB0000360704700BF502080F31188BFF34F8F51
:100AC000BFF36F8F00BF0E480068401C0C490860E0
:100AD00008460068012812D10A480068C0B208B967
:100AE000012000E0002050B900BF502080F31188A1
:100AF000BFF34F8FBFF36F8F00BF00BFFEE770479C
:100B00005400002004ED00E00D48006850B900BF1B
:100B1000502080F31188BFF34F8FBFF36F8F00BF5A
:100B200000BFFEE706480068401E05490860084609
:100B3000006820B9002080F3118800BF00BF704713
:100B40005400002070B506463546B6B1083D2C4627
:100B500000F088F86168094800E00068026852689F
:100B60008A42FAD302682260046005496068096815
:100B700008440349086000F04FFA70BD3C000020B3
:100B80004C0000201448006840F001001249086041
:100B90004FF47A70C1060885C006008820F0100066
:100BA00008801020C8628006808940F0010088819A
:100BB0001C20012181404209920002F1E022C2F88A
:100BC000001100BF4FF08040008840F001004FF05E
:100BD0008041088070470000403802401CB51A4828
:100BE00000210B468222CDE9001018A1194800F01F
:100BF0003FF90446012C15D100BF502080F3118825
:100C0000BFF34F8FBFF36F8F00BF4FF0FF3012491C
:100C1000086001201149086000201149086000F0B7
:100C20006FF810E0601C08B1012000E0002050B90E
:100C300000BF502080F31188BFF34F8FBFF36F8F39
:100C400000BF00BFFEE71CBD3400002049444C45F6
:100C500000000000D9070008300000201C00002020
:100C60001400002002480068401C014908607047D9
:100C7000380000201D48006818B101201C49086098
:100C800032E000201A4908601A480068B0FA80F083
:100C9000C0F11F0101EB8100174A52F8200008B192
:100CA000012000E0002050B900BF502080F31188DF
:100CB000BFF34F8FBFF36F8F00BF00BFFEE701EBA5
:100CC00081020D4B03EB820042685268426000F1E2
:100CD00008024368934202D1426852684260426807
:100CE000D268064B1A6000BF704700003800002031
:100CF00024000020180000206000002000000020D8
:100D00001CB5474800684749884201D0012000E0EF
:100D1000002050B900BF502080F31188BFF34F8FDF
:100D2000BFF36F8F00BF00BFFEE73D4800683D493D
:100D3000491E884201D0012000E0002050B900BFC8
:100D4000502080F31188BFF34F8FBFF36F8F00BF28
:100D500000BFFEE73449084600780190FF200A46AC
:100D600010700846007800909DF8000000F0F00038
:100D70009DF80020904201D1012000E0002050B9F0
:100D800000BF502080F31188BFF34F8FBFF36F8FE8
:100D900000BF00BFFEE79DF8000000F05000234AAE
:100DA00010700720224A106009E021480068401EA8
:100DB0001F4A10609DF800004006000E00909DF84C
:100DC000000000F080008028EFD019480068000281
:100DD000174A10601046008800F4E0601060124A64
:100DE000019810700E482030006840F470000C49E3
:100DF000203108600846006840F070400860FFF746
:100E0000C1FE00200B490860FFF72EFA0A4800686F
:100E100040F0404008490860FFF716FA00201CBD6A
:100E200000ED00E071C20F4100E400E05800002036
:100E30005C0000205400002034EF00E010B500BF3B
:100E4000502080F31188BFF34F8FBFF36F8F00BF27
:100E500000F03EF818B14FF080500449086000BF20
:100E6000002080F3118800BF10BD000004ED00E0F9
:100E70002DE9FF4F85B0804689461746DDE912AB64
:100E8000B800FFF775FD064656B15820FFF770FD14
:100E900004460CB1266304E03046FFF753FE00E041
:100EA00000247CB10020CDE900ABCDE902403A46F8
:100EB00049464046089BFFF793FC2046FFF7D8FBC6
:100EC000012501E04FF0FF35284609B0BDE8F08F5D
:100ED0002DE9F0414FF0000844480068002877D120
:100EE00043480068451C4248056015BB41480068FE
:100EF000006808B9012000E0002050B900BF502070
:100F000080F31188BFF34F8FBFF36F8F00BF00BF17
:100F1000FEE73848076838480068364908603648B0
:100F2000076036480068401C34490860FFF7E6FC5B
:100F300000BF3348006885423CD300BF2D4800689D
:100F4000006808B9012000E0002020B14FF0FF3018
:100F50002B4908602DE027480068C068C4686668AF
:100F6000B54202D22648066023E0201DFFF772FD3D
:100F7000A06A18B104F11800FFF76CFD94F82C106A
:100F8000012088401F49096808431E490860E16A3A
:100F900001EB81011C4A02EB8100211DFFF77EFD60
:100FA0001A49E06A0968C96A8842C7D34FF0010844
:100FB000C4E700BF15480068C06A00EB8000124912
:100FC00051F82000012801D94FF0010805E0FFE7A2
:100FD0000F480068401C0E4908600E48006808B1C0
:100FE0004FF001084046BDE8F081000038000020C5
:100FF0001400002004000020080000202800002029
:1010000030000020180000206000002000000020B8
:10101000200000202400002070B50024002636485F
:10102000006850B900BF502080F31188BFF34F8F84
:10103000BFF36F8F00BF00BFFEE7FFF73BFD2E48F9
:101040000068401E2C4908600846006800284FD1FF
:101050002A48006800284BD024E02948C068C468AA
:1010600004F11800FFF7F6FC201DFFF7F3FC94F8DD
:101070002C10012088402349096808432149086051
:10108000E16A01EB8101204A02EB8100211DFFF79B
:1010900005FD1E49E06A0968C96A884202D3012039
:1010A0001B4908601648006808B9012000E00020CC
:1010B0000028D2D00CB1FFF721FC1648056865B1B5
:1010C00000BFFFF705FF10B10120114908606D1E38
:1010D000002DF6D100200F4908600D48006838B196
:1010E000012630070C490860BFF34F8FBFF36F8FA5
:1010F000FFF70AFD304670BD3800002010000020C8
:10110000EC000020180000206000002000000020FB
:10111000240000202000002004ED00E04FF040708B
:10112000E1EE100A7047000048110008000000209E
:1011300060000000C4010008A81100086000002041
:1011400028330100E001000800000000000000005A
:10115000000000000000000000000000000000008F
:10116000000000000000000000000000000000007F
:10117000000000000000000000000000000000006F
:10118000000000000000000000000000000000005F
:1011900000000000F82B010000000000AAAAAAAA83
:0811A000000000000000000047
:04000005080002E10C
:00000001FF
