:020000040800F2
:1000000098340120F1020008F9020008FB02000800
:10001000FD020008FF0200080103000800000000C4
:10002000000000000000000000000000390200088D
:1000300005030008000000008D020008C90E00083A
:100040000B0300080B0300080B0300080B03000858
:100050000B0300080B0300080B0300080B03000848
:100060000B0300080B0300080B0300080B03000838
:100070000B0300080B0300080B0300080B03000828
:100080000B0300080B0300080B0300080B03000818
:100090000B0300080B0300080B0300080B03000808
:1000A0000B0300080B0300080B0300080B030008F8
:1000B0000B0300080B0300080B0300080B030008E8
:1000C0000B0300080B0300080B0300080B030008D8
:1000D0000B0300080B0300080B0300080B030008C8
:1000E0000B0300080B0300080B0300080B030008B8
:1000F0000B0300080B0300080B0300080B030008A8
:100100000B0300080B0300080B0300080B03000897
:100110000B0300080B0300080B0300080B03000887
:100120000B0300080B0300080B0300080B03000877
:100130000B0300080B0300080B0300080B03000867
:100140000B0300080B0300080B0300080B03000857
:100150000B0300080B0300080B0300080B03000847
:100160000B0300080B0300080B0300080B03000837
:100170000B0300080B0300080B030008000000003D
:100180000B0300080B03000800F002F800F044F82D
:100190000AA090E8000C82448344AAF10107DA45E2
:1001A00001D100F039F8AFF2090EBAE80F0013F0F0
:1001B000010F18BFFB1A43F001031847341A00005F
:1001C000541A0000103A24BF78C878C1FAD85207F0
:1001D00024BF30C830C144BF04680C6070470000C1
:1001E0000023002400250026103A28BF78C1FBD840
:1001F000520728BF30C148BF0B6070471FB501F0E0
:10020000E5FC9DE8030000F039FC00F039F91FBD62
:1002100010B500F09EF910BD00F0F5F91146FFF79A
:10022000EDFF00F04FFF00F0F9FB03B4FFF7F0FF24
:1002300003BC00F095FD00002A4B19680868B0E87F
:10024000F04F80F30988BFF36F8F4FF0000080F309
:10025000118870470000000006480068006880F3BD
:10026000088862B661B6BFF34F8FBFF36F8F00DFB0
:1002700000BF00BF08ED00E0DFF80C00016841F4AA
:1002800070010160704700BF88ED00E0EFF3098066
:10029000BFF36F8F134B1A681EF0100F08BF20EDCD
:1002A000108A20E9F04F106008B44FF0500080F33E
:1002B0001188BFF34F8FBFF36F8F01F04DFA4FF0EE
:1002C000000080F3118808BC19680868B0E8F04F96
:1002D0001EF0100F08BFB0EC108A80F30988BFF33E
:1002E0006F8F704700000020EFF30580704700001B
:1002F0000948804709480047FEE7FEE7FEE7FEE7BA
:10030000FEE7FEE7FEE7FEE7FEE7FEE704480549F5
:10031000054A064B70470000FD0E000889010008E1
:10032000982E012098340120983001209830012027
:100330000FB4044910B503AA029800F051F810BC9C
:100340005DF814FB8C2D012002F0FF0343EA032229
:1003500042EA024200F058B84FF0013C50F8042B3A
:1003600051F8043B9A4221D1A2EB0C03934313EAC8
:10037000CC1317D150F8042B51F8043B9A4215D1F5
:10038000A2EB0C03934313EACC130BD150F8042BCC
:1003900051F8043B9A4209D1A2EB0C03934313EAB0
:1003A000CC13DBD04FF00000704700BFD01A01BA69
:1003B000B1FA81F101F0180122FA01F0CB40C1F14C
:1003C0002001DBB2C0B2C01A2CFA01F3D11A91435A
:1003D00011EAC311E6D170477047704770470000BB
:1003E000074B70B50D467B4400F033F804462846B1
:1003F00000F042F810B14FF0FF3070BD204670BDE4
:10040000C10C00004FF000020429C0F0128010F06F
:10041000030C00F0D380CCF1040CBCF1020F18BF28
:1004200000F8012BA8BF20F8022BA1EB0C0100F073
:10043000C5B85FEAC17C24BF00F8012B00F8012B8E
:1004400048BF00F8012B704701694A1C0261087817
:10045000704700B58FB0CDE9013100210591054904
:100460007944CDE903101146684600F018F90FB041
:1004700000BD0000E5FFFFFF007B00F0800070473B
:1004800010B54248542100F097F84148542100F03B
:1004900093F84048542100F08FF83F493B483C4ACC
:1004A0003F4B08603D490A603A491960531C036597
:1004B000481C1065012008653B48344A39A178443E
:1004C00000F010FA20B9384878440A3800F0AFFA42
:1004D00037482F4A35A1784400F004FA20B934484F
:1004E00078440A3800F0A3FA32482A4A2FA1784407
:1004F00000F0F8F920B92F4878440A3800F097FA4C
:1005000040232248DC000021224600F0C7F920B138
:1005100025487844543800F08AFA1D482246402382
:10052000002100F0BBF920B121487844543800F094
:100530007EFA184822461023002100F0AFF9002867
:1005400006D01C487844BDE81040563800F06FBA19
:1005500010BD104870B5006D20F001040B4800F08C
:1005600037FA0B4800F034FA0A4800F031FA09E093
:10057000206D20F00105204600F02AFA204600F008
:1005800067F82C46002CF3D170BD0000382D0120F7
:100590008C2D0120E02D0120640000206800002047
:1005A0006C000020720000001417000077000000AB
:1005B00003170000F31600004FF0000200B51346C9
:1005C00094469646203922BFA0E80C50A0E80C5073
:1005D000B1F12001BFF4F7AF090728BFA0E80C5024
:1005E00048BF0CC05DF804EB890028BF40F8042B1D
:1005F00008BF704748BF20F8022B11F0804F18BF8A
:1006000000F8012B7047754600F018FAAE46050059
:100610006946534620F00700854618B020B5FFF71D
:1006200075FEBDE820404FF000064FF000074FF088
:1006300000084FF0000B21F00701AC46ACE8C00900
:10064000ACE8C009ACE8C009ACE8C0098D46704709
:1006500070B50446051F00F0F5F90068002C14BFC2
:10066000446870BD002C18BFAC423CBF2046646893
:10067000F8D301680A18AA4218BF456003D12A6856
:1006800005461144016028684119A1421CBF6C60F5
:1006900070BD6168696021680844286070BD2DE9FB
:1006A000F04106460024D6E90170F56880463046E0
:1006B00003E04146B847641C3046A8470028F8D1FB
:1006C0002046BDE8F0812DE9F04705460C46C86894
:1006D00020F4201040F48000C860800602D508464F
:1006E00000F0FDFAE06841F282014FF0FF3901406D
:1006F000022903D0204600F09BFAB5E000F4204127
:10070000B1F5004F0FD1C00306D56168E06A884299
:1007100000D80846606006E02069E06260606069B9
:1007200000F031FCA061A0680022EEB200280DDAD2
:10073000E1688B050AD4C043A06041F49030226088
:10074000E0606068411C61600670A5E0E06890466A
:10075000226040F40050E060206968BB606900F0EE
:1007600024FC012704F12405A0B1A08910F4407FE6
:1007700008D0E06900F0B1F9206118B1E06840F4F8
:10078000006016E0E7612561E06820F4407040F405
:1007900080600EE0E06900F0A0F900282061F1D04F
:1007A000E06840F4006010F4407FE06002D140F463
:1007B0008070E06020696060E06825696FF0010A80
:1007C000C1051FD56168E06A884200D80846411B10
:1007D00004D02246284600F035FAF0BBE06801025A
:1007E00003D5E562C4E9015854E0691CE162616027
:1007F000E16940F48030491EC4E9021030462E7091
:10080000BDE8F087010202D500F480320AE060689A
:10081000411C61600670E0680A2E40F48030E060A0
:1008200006D00022E16A6068814203D90B4602E0EB
:100830000122F7E70346A7895B1B7F0503D4E7691D
:100840009F4200DDE2B1814200D80146E5620F1A05
:10085000C4E90158002B09DD00E005E022461946F5
:10086000284600F0EFF908B14846C9E747B1A0694A
:10087000E5626560C01BA061E06840F01000E060C8
:10088000E068000208D56168A069E562491B084478
:100890006560A0615046B3E73046B1E770B5C46803
:1008A000A50713D0650211D4B2F5807F09D0B2F547
:1008B000007F06D0B2F5806F08D1012300F124013A
:1008C00006E05D1E6FF07F46B54201D3012070BD8A
:1008D0000161C361416024F470611143C160002073
:1008E00070BD00002DE9F0410C4607461646104643
:1008F00000F06EF82078611C61280AD0722802D0BE
:1009000077283CD102E00125002405E002250424DB
:1009100002E0082448F2020511F8010B2B2806D04A
:10092000622809D011F8010C74280AD00BE045F0B8
:10093000030544F00204EFE745F0040544F0010428
:10094000EAE744F010043846214600F041FB411C20
:1009500015D00021316171604FF40071F560F161D3
:100960007061200704D530460222002100F0E4F82F
:10097000306D40F0010030653046BDE8F081002068
:10098000FBE72DE9F0410D460646104C206DC107EE
:1009900004D0410804D020F00104F7E722460EE01D
:1009A000542000F09AF807000ED0206D47F00101A6
:1009B0000843542120653846FFF7FEFD3A46294694
:1009C0003046BDE8F0418DE70020D6E7382D012004
:1009D0002DE9F04704464FF000094FF0FF37C56896
:1009E000D4E90486A80707D0204600F055F9304620
:1009F00000F0B6FA002802DA3846BDE8F08728058C
:100A000002D54046FFF724FE4C212046FFF7D4FDD7
:100A1000206D20F0010020654846EEE710B5044641
:100A2000AFF300802046BDE81040FFF7FEBB10B5D5
:100A300000F07CF9BDE8104000F072B90048704742
:100A4000342E0120004870473C2E0120704770472B
:100A50007047704738B504460A4600206946AFF330
:100A60000080002808BF38BD02460099204600F0EB
:100A700084F9012038BD012000F0D3B9F8B5AFF3F7
:100A80000080054600200C46102000BF0646A8192D
:100A9000A0420DD9324669460020AFF3008007001E
:100AA00008BF00F0BEF90098A04218BF0546C4195F
:100AB000FFF7C8FF05600746F01D20F00700461944
:100AC000284600F053F9B44208BFF8BDA21B3146D6
:100AD0003868BDE8F84000F050B970B50646FFF739
:100AE000B1FF056806F10B0020F00704B4429CBF7B
:100AF000002070BD2B466A68BAB11068A04210D3BE
:100B000004F1080188423CBF5068586007D351681F
:100B1000101941601168091B016058601460101DB4
:100B200070BD13465268002AE7D121462846FFF7D8
:100B300091FF0028DED170BD2DE9F0410446164634
:100B40000D464769007B80072ED0384600F02DFA0D
:100B500050BB3EB3012E02D0022E25D104E0204628
:100B600000F025F905441DE0384600F00CFAE16874
:100B7000002841F01001E16005DA204600F058F845
:100B80000120BDE8F081C9030BD56268E16A91429A
:100B900000D81146A26911442269891A814200DDF8
:100BA00008460544002D01DA0220EAE7E16A6068A0
:100BB000E268814206D29103E06203D522F400315B
:100BC00041F01002A6690027AE4213DCE16A8142BF
:100BD00001D90B4600E0034603EB060C2369ACEB9E
:100BE000030CAC4506DD814201D98C4600E0844609
:100BF0009C4505D1A760276042F02000A5620DE06A
:100C0000AD1BE669AE1B8142A66000D90846C01A3A
:100C1000281A20605819606022F02000034908401B
:100C2000E060002084F84870ABE70000BFCFD7FF3A
:100C3000C16821F4001141F08001C1600021816090
:100C4000016070472DE9F047814614460E464FF08B
:100C5000FF383248D5685769054209D03846A1693E
:100C600000F0EAF9002811DB2C48C0430540E5609C
:100C70002B4632464946384600F0F4F9A16920F087
:100C80000042B21A11440028A16103D02046FFF7A8
:100C9000CFFF4046BDE8F08770B504460569C06ADD
:100CA0006168884200D80846E16821F42011E160BB
:100CB000C90312D5A84208D02246411B2846FFF797
:100CC000C1FF10B14FF0FF3070BD0020E562C4E9F4
:100CD0000150E06820F48030E060002070BD10B565
:100CE0000446C06820F02000E060A16AA069884244
:100CF0000DD02046FFF7D0FFE06820F4405040F0D0
:100D00001000E060A06AA0612069E062606044F2C7
:100D10004001E0688843E06010BD00001000020060
:100D2000002801D000F01CB87047000010B5014643
:100D300002A000F05DF8012010BD000053494752A9
:100D4000545245443A2052656469726563743A208E
:100D500063616E2774206F70656E3A20000000009A
:100D600001491820ABBEFEE7260002000021016009
:100D7000C0E90110704710207047034640688C4658
:100D8000002818BF88423CBF03464068F8D3186863
:100D90001844884207D00CF1030020F00700001D22
:100DA000411A521A0146081D0A60FFF751BC10B5DE
:100DB0000146C268900703D0900607D5886A0AE00A
:100DC00000F03EF801210160881E10BD8B69486863
:100DD00018440B69C01A91F848301BB191F84910BA
:100DE000401A10BD1103FCD50028FADD401E10BDCD
:100DF00070B505460C460A2000E06D1C00F018F89E
:100E000035B128780028F8D102E0641C00F010F811
:100E100014B120780028F8D1BDE870400A2000F015
:100E200007B810B500F010F8BDE81040FFF778BF24
:100E300008B569468DF800000320ABBE08BD7047B9
:100E400000487047342E012010B5012805D000213C
:100E500003A0FFF7CDFF012010BD09A1F8E70000B6
:100E600053494752544D454D3A204F7574206F6693
:100E70002068656170206D656D6F727900000000FB
:100E80003A2048656170206D656D6F727920636FDF
:100E900072727570746564000A49096801F0010195
:100EA00071B108498039096801F0010141B100BF01
:100EB0004FF0604109680029FAD04FF0604210708D
:100EC00070470000800E00E010B500BF502080F396
:100ED0001188BFF34F8FBFF36F8F00BF00F050FD3D
:100EE00018B14FF080500449086000BF002080F323
:100EF000118800BF10BD000004ED00E01448006838
:100F000040F47000124908601248006840F0010087
:100F10001049086000200F49083108600D4800683A
:100F20000D4908400B4908600C48091D0860081F5E
:100F3000006820F48020091F0860002005490C315A
:100F400008604FF000600249803908607047000077
:100F500088ED00E000380240FFFFF6FE103000246C
:100F600001466FF40040084420B1012804D0022853
:100F700006D103E0002070470020FCE70020FAE7DC
:100F80004FF0FF30F7E701466FF40040084420B10E
:100F9000012804D0022806D103E000207047002079
:100FA000FCE70020FAE70020F8E701466FF4004074
:100FB000084420B1012804D0022806D103E0012012
:100FC00070470120FCE70120FAE70020F8E7000065
:100FD00070B504460D4614B94FF0FF3070BD20784F
:100FE0003A281AD10EA12046FFF7B6F910B948F2F7
:100FF0000100F3E70CA12046FFF7AEF910B948F263
:101000000200EBE70AA12046FFF7A6F910B948F263
:101010000300E3E74FF0FF30E0E74FF0FF30DDE79C
:101020003A535444494E00003A5354444F555400E7
:101030003A5354444552520002466FF40040104463
:1010400020B1012805D0022809D105E04FF0FF307A
:1010500070474FF0FF30FBE74FF0FF30F8E74FF0FD
:10106000FF30F5E72DE9F04106460C461546984657
:101070006FF40040304420B1012806D0022811D17D
:101080000EE04FF0FF30BDE8F08105E014F8017B81
:10109000384600F02BFA6D1E002DF7D10020F2E744
:1010A0000020F0E74FF0FF30EDE78A68002A01DC0E
:1010B000FFF709BB521E8A604A68C0B2531C4B60DE
:1010C000107070471CB50020012103469622CDE91F
:1010D000001009A1094800F023FC0020012103466B
:1010E0009622CDE9001006A1064800F019FC00F098
:1010F000E7FA00201CBD000054310000491600082A
:10110000543200008516000810B5044600F024FA99
:1011100024480068401C234908602348006840B9FF
:10112000214804600846006801280DD100F0FEF84F
:101130000AE01E48006838B91B480068C06AE16AC6
:10114000884201D81848046019480068401C1849B2
:10115000086008460068206494F82C10012088403C
:1011600014490968084313490860E16A01EB8101E9
:10117000114A02EB8100211D00F0E2F900F016FA9D
:101180000A48006868B108480068C06AE16A884295
:1011900007D24FF0805009490860BFF34F8FBFF36B
:1011A0006F8F10BD10000020000000201C000020E8
:1011B0002C000020180000207000002004ED00E04A
:1011C00070B523E000F0C0FA1348006808B90120A8
:1011D00000E00020054600F077FCBDB900F0BCF946
:1011E0000D48C068C468201D00F086F90B480068EF
:1011F000401E0A4908600A480068401E0849086005
:1012000000F0D4F9204600F00DF800BF0448006853
:101210000028D7D170BD0000100100201000002070
:101220000C00002010B50446206B00F0DDF92046CC
:1012300000F0DAF910BD0000094A22F00700094A5F
:1012400010600022074B5A60074A084B5A60002280
:101250001A600146044A4A601A460A607047000054
:10126000400100203C000020F82B01004400002039
:1012700000BFFFF7A5FFFCE72DE9F05F82460F46B0
:1012800090469B460A9E0C9C4FEA8801A522206B43
:10129000FFF75AF8A8F10100216B01EB800929F052
:1012A000070909F0070008B9012000E0002050B943
:1012B00000BF502080F31188BFF34F8FBFF36F8FB3
:1012C00000BF00BFFEE7002507E0795D04F13400B0
:1012D0004155785D00B902E06D1C0A2DF5D300BFC1
:1012E00000213D200155052E00D30426E662A664A8
:1012F0000020E064201D00F020F904F1180000F047
:101300001CF92461C6F10500A0616462002020651B
:1013100084F854005A465146484600F0D1F82060FF
:101320000B9808B10B980460BDE8F09F10B500243D
:1013300007E004EB84010F4A02EB810000F0F0F8B3
:10134000641C052CF5D30C4800F0EAF80B4800F0BB
:10135000E7F80B4800F0E4F80A4800F0E1F80A4822
:1013600000F0DEF8044809490860044808490860AC
:1013700010BD000070000020D4000020E800002014
:10138000FC000020100100202401002004000020A7
:10139000080000200A490968096809B9012100E02C
:1013A000002121B14FF0FF31064A116006E00449E7
:1013B0000968C968C868034A41681160704700003D
:1013C00004000020300000200E480068401C08B9CE
:1013D000012000E0002050B900BF502080F31188A8
:1013E000BFF34F8FBFF36F8F00BF00BFFEE700BF9B
:1013F000502080F31188BFF34F8FBFF36F8F00BF72
:1014000000BFFEE7540000202DE9F04104464FF0F4
:10141000000800F099F92548006820B9FFF70CFF93
:1014200001202249086044B1083404F0070020B1CB
:1014300004F00700C0F108000444002C31D01C481F
:1014400084422ED21B4F3846056801E02F462D6896
:101450006868A04202D228680028F7D11648854261
:101460001FD0386800F10808286838606868001BD9
:10147000102810D92E196868001B70606C607168A4
:101480000C4800E00068026852688A42FAD3026899
:101490003260066000BF094968680968081A074990
:1014A000086000F011FB4046BDE8F08150000020CC
:1014B000F82B01003C000020440000204C000020DC
:1014C000001F4FF080730360001F21F001030360D1
:1014D000001F054B036014380260001F6FF0020309
:1014E0000360203870470000C913000800B50346A8
:1014F0001846FFF7D1FC00BD01460A69D1E9013069
:101500009860D1E9010358605068884201D1886829
:101510005060002008611068401E1060106870471D
:1015200000F1080141604FF0FF31816000F10801D6
:10153000C1600161002101607047002101617047B5
:1015400042684A6093688B60936859609160086153
:1015500003685B1C0360704700BF502080F3118854
:10156000BFF34F8FBFF36F8F00BF0E480068401C62
:101570000C49086008460068012812D10A48006832
:10158000C0B208B9012000E0002050B900BF5020CF
:1015900080F31188BFF34F8FBFF36F8F00BF00BF81
:1015A000FEE770475400002004ED00E00D4800689D
:1015B00050B900BF502080F31188BFF34F8FBFF3A5
:1015C0006F8F00BF00BFFEE706480068401E054958
:1015D00008600846006820B9002080F3118800BF29
:1015E00000BF70475400002070B506463546B6B1BE
:1015F000083D2C4600F0A8F86168094800E0006842
:10160000026852688A42FAD302682260046005497F
:101610006068096808440349086000F055FA70BD25
:101620003C0000204C000020064800684FF47A710E
:10163000B0FBF1F0401E4FF0E02148610720086147
:10164000704700006000002008B50020009000BF37
:1016500007A0FEF76DFE0020009002E00098401CFD
:1016600000904CF2503100988842F1D2F6E7000029
:101670005461736B2D312052756E6E696E672E0A40
:101680000000000008B50020009000BF07A0FEF792
:101690004FFE0020009002E00098401C00904CF2A9
:1016A000503100988842F1D2F6E700005461736B24
:1016B0002D322052756E6E696E672E0A0000000092
:1016C0001CB51A4800210B468222CDE9001018A152
:1016D000194800F025F90446012C15D100BF50200F
:1016E00080F31188BFF34F8FBFF36F8F00BF4FF0B0
:1016F000FF3012490860012011490860002011499B
:10170000086000F06FF810E0601C08B1012000E0F4
:10171000002050B900BF502080F31188BFF34F8FD5
:10172000BFF36F8F00BF00BFFEE71CBD3400002079
:1017300049444C45000000007112000830000020B0
:101740001C0000201400002002480068401C0149D1
:1017500008607047380000201D48006818B101205B
:101760001C49086032E000201A4908601A480068E5
:10177000B0FA80F0C0F11F0101EB8100174A52F866
:10178000200008B1012000E0002050B900BF502027
:1017900080F31188BFF34F8FBFF36F8F00BF00BF7F
:1017A000FEE701EB81020D4B03EB820042685268B9
:1017B000426000F108024368934202D142685268D5
:1017C00042604268D268064B1A6000BF7047000052
:1017D00038000020240000201800002070000020A5
:1017E000000000201CB5474800684749884201D0E6
:1017F000012000E0002050B900BF502080F3118884
:10180000BFF34F8FBFF36F8F00BF00BFFEE73D48B0
:1018100000683D49491E884201D0012000E00020B7
:1018200050B900BF502080F31188BFF34F8FBFF332
:101830006F8F00BF00BFFEE7344908460078019073
:10184000FF200A4610700846007800909DF80000BE
:1018500000F0F0009DF80020904201D1012000E04E
:10186000002050B900BF502080F31188BFF34F8F84
:10187000BFF36F8F00BF00BFFEE79DF8000000F0D0
:101880005000234A10700720224A106009E02148C6
:101890000068401E1F4A10609DF800004006000EC0
:1018A00000909DF8000000F080008028EFD01948DB
:1018B00000680002174A10601046008800F4E060DB
:1018C0001060124A019810700E482030006840F4F1
:1018D00070000C49203108600846006840F07040F4
:1018E0000860FFF7A1FE00200B490860FEF7C4FC6A
:1018F0000A48006840F0404008490860FEF7ACFC28
:1019000000201CBD00ED00E071C20F4100E400E0CA
:10191000580000205C0000205400002034EF00E05C
:101920002DE9FF4F85B0804689461746DDE912ABA9
:10193000B800FFF769FD064656B15820FFF764FD71
:1019400004460CB1266304E03046FFF74DFE00E08C
:1019500000247CB10020CDE900ABCDE902403A463D
:1019600049464046089BFFF787FC2046FFF7CCFB23
:10197000012501E04FF0FF35284609B0BDE8F08FA2
:101980002DE9F0414FF0000844480068002877D165
:1019900043480068451C4248056015BB4148006843
:1019A000006808B9012000E0002050B900BF5020B5
:1019B00080F31188BFF34F8FBFF36F8F00BF00BF5D
:1019C000FEE73848076838480068364908603648F6
:1019D000076036480068401C34490860FFF7DAFCAD
:1019E00000BF3348006885423CD300BF2D480068E3
:1019F000006808B9012000E0002020B14FF0FF305E
:101A00002B4908602DE027480068C068C4686668F4
:101A1000B54202D22648066023E0201DFFF76CFD88
:101A2000A06A18B104F11800FFF766FD94F82C10B5
:101A3000012088401F49096808431E490860E16A7F
:101A400001EB81011C4A02EB8100211DFFF778FDAB
:101A50001A49E06A0968C96A8842C7D34FF0010889
:101A6000C4E700BF15480068C06A00EB8000124957
:101A700051F82000012801D94FF0010805E0FFE7E7
:101A80000F480068401C0E4908600E48006808B105
:101A90004FF001084046BDE8F0810000380000200A
:101AA000140000200400002008000020280000206E
:101AB00030000020180000207000002000000020EE
:101AC000200000202400002070B5002400263648A5
:101AD000006850B900BF502080F31188BFF34F8FCA
:101AE000BFF36F8F00BF00BFFEE7FFF735FD2E4845
:101AF0000068401E2C4908600846006800284FD145
:101B00002A48006800284BD024E02948C068C468EF
:101B100004F11800FFF7F0FC201DFFF7EDFC94F82E
:101B20002C10012088402349096808432149086096
:101B3000E16A01EB8101204A02EB8100211DFFF7E0
:101B4000FFFC1E49E06A0968C96A884202D3012085
:101B50001B4908601648006808B9012000E0002011
:101B60000028D2D00CB1FFF715FC1648056865B106
:101B700000BFFFF705FF10B10120114908606D1E7D
:101B8000002DF6D100200F4908600D48006838B1DB
:101B9000012630070C490860BFF34F8FBFF36F8FEA
:101BA000FFF704FD304670BD380000201000002013
:101BB000FC00002018000020700000200000002021
:101BC000240000202000002004ED00E04FF04070D1
:101BD000E1EE100A70473A535444494E003A5354C8
:101BE000444F5554003A53544445525200000000AB
:101BF000101C00080000002070000000C401000854
:101C0000801C00087000002028340100E00100085A
:101C100000000000000000000000000000000000C4
:101C200000000000000000000000000000000000B4
:101C300000000000000000000000000000000000A4
:101C40000000000000000000000000000000000094
:101C5000000000000000000000000000F82B010060
:101C600000000000AAAAAAAA0000000000000000CC
:101C70000024F4000000000000000000000000004C
:040000050800018965
:00000001FF
