:020000040800F2
:10000000A0340120F90200080103000803030008DE
:1000100005030008070300080903000800000000AA
:100020000000000000000000000000004102000885
:100030000D03000800000000950200087D10000874
:100040001303000813030008130300081303000838
:100050001303000813030008130300081303000828
:100060001303000813030008130300081303000818
:100070001303000813030008130300081303000808
:1000800013030008130300081303000813030008F8
:1000900013030008130300081303000813030008E8
:1000A00013030008130300081303000813030008D8
:1000B00013030008130300081303000813030008C8
:1000C00013030008130300081303000813030008B8
:1000D00013030008130300081303000813030008A8
:1000E0001303000813030008130300081303000898
:1000F0001303000813030008130300081303000888
:100100001303000813030008130300081303000877
:100110001303000813030008130300081303000867
:100120001303000813030008130300081303000857
:100130001303000813030008130300081303000847
:100140001303000813030008130300081303000837
:100150001303000813030008130300081303000827
:100160001303000813030008130300081303000817
:100170001303000813030008130300080000000025
:10018000130300081303000800F002F800F049F818
:100190000AA090E8000C82448344AAF10107DA45E2
:1001A00001D100F03EF8AFF2090EBAE80F0013F0EB
:1001B000010F18BFFB1A43F0010318474027000046
:1001C00060270000103A24BF78C878C1FAD85207D7
:1001D00024BF30C830C144BF04680C6070470000C1
:1001E0000023002400250026103A28BF78C1FBD840
:1001F000520728BF30C148BF0B607047732900F019
:10020000A681002070471FB502F052FB9DE8030055
:1002100000F00EFD00F022FA1FBD10B500F087FAC5
:1002200010BD00F0DEFA1146FFF7EDFF01F024F8F3
:1002300000F0CEFC03B4FFF7F0FF03BC00F06AFE51
:100240002A4B19680868B0E8F04F80F30988BFF3BB
:100250006F8F4FF0000080F311887047000000009E
:1002600006480068006880F3088862B661B6BFF38C
:100270004F8FBFF36F8F00DF00BF00BF08ED00E0BE
:10028000DFF80C00016841F470010160704700BFA5
:1002900088ED00E0EFF30980BFF36F8F134B1A680E
:1002A0001EF0100F08BF20ED108A20E9F04F1060FB
:1002B00008B44FF0500080F31188BFF34F8FBFF3A5
:1002C0006F8F01F00FFD4FF0000080F3118808BC24
:1002D00019680868B0E8F04F1EF0100F08BFB0ECC6
:1002E000108A80F30988BFF36F8F70470C000020DD
:1002F000EFF3058070470000094880470948004730
:10030000FEE7FEE7FEE7FEE7FEE7FEE7FEE7FEE7C5
:10031000FEE7FEE704480549054A064B7047000022
:10032000B110000889010008A02E0120A03401208E
:10033000A0300120A03001200FB4044910B503AA59
:10034000029800F009F910BC5DF814FB982D01200B
:100350002DE9F0410E460446002020622046E16867
:10036000884730B3252805D0D4E901219047206A79
:10037000401CF2E7E168204600278847050018D0B6
:10038000A5F14100192802D820354FF40067324604
:10039000294620462760FFF731FF40B1012804D0ED
:1003A000F61D26F007060836D8E7361DD6E728469C
:1003B000DAE7206ABDE8F08170B50C460546012AEF
:1003C00005D02878800600D5EA69002302E00123E1
:1003D00005E05B1C934202D2E05C0028F9D1A869D9
:1003E000E618C01AA861286A184428622846AFF3A4
:1003F000008004E0D5E9012114F8010B9047B442D4
:10040000F8D32846AFF3008070BD032A40F2308055
:1004100010F0030C00F0158011F8013BBCF1020F45
:10042000624498BF11F801CB00F8013B38BF11F8C6
:10043000013BA2F1040298BF00F801CB38BF00F8DD
:10044000013B11F0030300F09980083AC0F00880E6
:1004500051F8043B083A51F804CBA0E80810F5E73E
:10046000121D5CBF51F8043B40F8043BAFF3008021
:10047000D20724BF11F8013B11F801CB48BF11F896
:10048000012B24BF00F8013B00F801CB48BF00F866
:10049000012B704702F0FF0343EA032242EA0242C3
:1004A00000F0A0B84FF0013C50F8042B51F8043B89
:1004B0009A4221D1A2EB0C03934313EACC1317D138
:1004C00050F8042B51F8043B9A4215D1A2EB0C03CF
:1004D000934313EACC130BD150F8042B51F8043B8F
:1004E0009A4209D1A2EB0C03934313EACC13DBD05D
:1004F0004FF00000704700BFD01A01BAB1FA81F185
:1005000001F0180122FA01F0CB40C1F12001DBB269
:10051000C0B2C01A2CFA01F3D11A914311EAC311E7
:10052000E6D1704770477047704710B5436913B103
:10053000AFF3008001E0FFF73FFF012010BD12780C
:1005400000F124010A7000224A700122EDE71168CF
:100550004FF0FF32E9E70000074B70B50D467B44D2
:1005600000F065F80446284600F074F810B14FF02A
:10057000FF3070BD204670BDFD0C000010B5203A64
:10058000C0F00B80B1E81850203AA0E81850B1E84C
:100590001850A0E81850BFF4F5AF5FEA027C24BF02
:1005A000B1E81850A0E8185044BF18C918C0BDE8F9
:1005B00010405FEA827C24BF51F8043B40F8043BC2
:1005C00008BF7047D20728BF31F8023B48BF11F877
:1005D000012B28BF20F8023B48BF00F8012B7047D1
:1005E0004FF000020429C0F0128010F0030C00F05C
:1005F000D380CCF1040CBCF1020F18BF00F8012B22
:10060000A8BF20F8022BA1EB0C0100F0C5B85FEAEF
:10061000C17C24BF00F8012B00F8012B48BF00F873
:10062000012B704701694A1C02610878704700B5C8
:100630008FB0CDE901310021059105497944CDE91B
:10064000031011466846FFF783FE0FB000BD00009F
:10065000E5FFFFFF007B00F08000704710B54248C7
:10066000542100F097F84148542100F093F8404895
:10067000542100F08FF83F493B483C4A3F4B08600B
:100680003D490A603A491960531C0365481C1065CE
:10069000012008653B48344A39A1784400F0FCF950
:1006A00020B9384878440A3800F09BFA37482F4A76
:1006B00035A1784400F0F0F920B9344878440A387C
:1006C00000F08FFA32482A4A2FA1784400F0E4F96A
:1006D00020B92F4878440A3800F083FA4023224892
:1006E000DC000021224600F0B3F920B1254878440F
:1006F000543800F076FA1D4822464023002100F0CD
:10070000A7F920B121487844543800F06AFA184813
:1007100022461023002100F09BF9002806D01C4837
:100720007844BDE81040563800F05BBA10BD104860
:1007300070B5006D20F001040B4800F023FA0B485F
:1007400000F020FA0A4800F01DFA09E0206D20F0C0
:100750000105204600F016FA204600F067F82C4606
:10076000002CF3D170BD0000442D0120982D0120F4
:10077000EC2D012070000020740000207800002083
:10078000720000001C220000770000000B22000015
:10079000FB2100004FF0000200B513469446964638
:1007A000203922BFA0E80C50A0E80C50B1F1200184
:1007B000BFF4F7AF090728BFA0E80C5048BF0CC032
:1007C0005DF804EB890028BF40F8042B08BF704790
:1007D00048BF20F8022B11F0804F18BF00F8012B02
:1007E0007047754600F004FAAE4605006946534668
:1007F00020F00700854618B020B5FFF78BFDBDE857
:1008000020404FF000064FF000074FF000084FF077
:10081000000B21F00701AC46ACE8C009ACE8C00908
:10082000ACE8C009ACE8C0098D46704770B5044615
:10083000051F00F0E1F90068002C14BF446870BD8A
:10084000002C18BFAC423CBF20466468F8D3016856
:100850000A18AA4218BF456003D12A680546114408
:10086000016028684119A1421CBF6C6070BD6168BD
:10087000696021680844286070BD2DE9F04705468D
:100880000C46C86820F4201040F48000C860800640
:1008900002D5084600F0FDFAE06841F282014FF00F
:1008A000FF390140022903D0204600F09BFAB5E051
:1008B00000F42041B1F5004F0FD1C00306D56168A7
:1008C000E06A884200D80846606006E02069E0627D
:1008D0006060606900F031FCA061A0680022EEB2A7
:1008E00000280DDAE1688B050AD4C043A06041F40A
:1008F00090302260E0606068411C61600670A5E095
:10090000E0689046226040F40050E060206968BBD7
:10091000606900F024FC012704F12405A0B1A0893E
:1009200010F4407F08D0E06900F0B1F9206118B1FF
:10093000E06840F4006016E0E7612561E06820F4BB
:10094000407040F480600EE0E06900F0A0F90028FB
:100950002061F1D0E06840F4006010F4407FE06076
:1009600002D140F48070E06020696060E068256931
:100970006FF0010AC1051FD56168E06A884200D89E
:100980000846411B04D02246284600F035FAF0BB49
:10099000E068010203D5E562C4E9015854E0691C2E
:1009A000E1626160E16940F48030491EC4E90210EF
:1009B00030462E70BDE8F087010202D500F4803287
:1009C0000AE06068411C61600670E0680A2E40F42D
:1009D0008030E06006D00022E16A6068814203D97D
:1009E0000B4602E00122F7E70346A7895B1B7F0560
:1009F00003D4E7699F4200DDE2B1814200D801469D
:100A0000E5620F1AC4E90158002B09DD00E005E09A
:100A100022461946284600F0EFF908B14846C9E7D2
:100A200047B1A069E5626560C01BA061E06840F065
:100A30001000E060E068000208D56168A069E56226
:100A4000491B08446560A0615046B3E73046B1E7F2
:100A500070B5C468A50713D0650211D4B2F5807FC4
:100A600009D0B2F5007F06D0B2F5806F08D101231E
:100A700000F1240106E05D1E6FF07F46B54201D310
:100A8000012070BD0161C361416024F470611143B4
:100A9000C160002070BD00002DE9F0410C46074602
:100AA0001646104600F06EF82078611C61280AD0C6
:100AB000722802D077283CD102E00125002405E00D
:100AC0000225042402E0082448F2020511F8010B73
:100AD0002B2806D0622809D011F8010C74280AD0FE
:100AE0000BE045F0030544F00204EFE745F0040590
:100AF00044F00104EAE744F010043846214600F0CF
:100B000041FB411C15D00021316171604FF400712F
:100B1000F560F1617061200704D5304602220021A2
:100B200000F0E4F8306D40F0010030653046BDE87B
:100B3000F0810020FBE72DE9F0410D460646104C00
:100B4000206DC10704D0410804D020F00104F7E76C
:100B500022460EE0542000F09AF807000ED0206DD7
:100B600047F001010843542120653846FFF712FE83
:100B70003A4629463046BDE8F0418DE70020D6E7E9
:100B8000442D01202DE9F04704464FF000094FF0B5
:100B9000FF37C568D4E90486A80707D0204600F0CF
:100BA00055F9304600F0B6FA002802DA3846BDE8BA
:100BB000F087280502D54046FFF738FE4C21204635
:100BC000FFF7E8FD206D20F0010020654846EEE7C4
:100BD00010B50446AFF300802046BDE81040FFF793
:100BE00029BB10B500F07CF9BDE8104000F072B9E7
:100BF00000487047402E012000487047482E0120D1
:100C0000704770477047704738B504460A46002061
:100C10006946AFF30080002808BF38BD024600993E
:100C2000204600F084F9012038BD012000F0D3B93E
:100C3000F8B5AFF30080054600200C46102000BF39
:100C40000646A819A0420DD9324669460020AFF3E6
:100C50000080070008BF00F0BEF90098A04218BF4E
:100C60000546C419FFF7C8FF05600746F01D20F0D0
:100C700007004619284600F053F9B44208BFF8BDF2
:100C8000A21B31463868BDE8F84000F050B970B595
:100C90000646FFF7B1FF056806F10B0020F00704D8
:100CA000B4429CBF002070BD2B466A68BAB1106880
:100CB000A04210D304F1080188423CBF506858603C
:100CC00007D35168101941601168091B0160586011
:100CD0001460101D70BD13465268002AE7D12146EA
:100CE0002846FFF791FF0028DED170BD2DE9F041C5
:100CF000044616460D464769007B80072ED03846CD
:100D000000F02DFA50BB3EB3012E02D0022E25D1A9
:100D100004E0204600F025F905441DE0384600F0C7
:100D20000CFAE168002841F01001E16005DA204684
:100D300000F058F80120BDE8F081C9030BD56268C6
:100D4000E16A914200D81146A26911442269891AC8
:100D5000814200DD08460544002D01DA0220EAE761
:100D6000E16A6068E268814206D29103E06203D5DD
:100D700022F4003141F01002A6690027AE4213DCD4
:100D8000E16A814201D90B4600E0034603EB060C01
:100D90002369ACEB030CAC4506DD814201D98C46DE
:100DA00000E084469C4505D1A760276042F0200002
:100DB000A5620DE0AD1BE669AE1B8142A66000D9BD
:100DC0000846C01A281A20605819606022F02000D6
:100DD00003490840E060002084F84870ABE7000059
:100DE000BFCFD7FFC16821F4001141F08001C1607D
:100DF00000218160016070472DE9F047814614466B
:100E00000E464FF0FF383248D5685769054209D081
:100E10003846A16900F0EAF9002811DB2C48C043EC
:100E20000540E5602B4632464946384600F0F4F965
:100E3000A16920F00042B21A11440028A16103D038
:100E40002046FFF7CFFF4046BDE8F08770B5044667
:100E50000569C06A6168884200D80846E16821F4E3
:100E60002011E160C90312D5A84208D02246411BD7
:100E70002846FFF7C1FF10B14FF0FF3070BD0020D2
:100E8000E562C4E90150E06820F48030E0600020B1
:100E900070BD10B50446C06820F02000E060A16A73
:100EA000A06988420DD02046FFF7D0FFE06820F40B
:100EB000405040F01000E060A06AA0612069E0624C
:100EC000606044F24001E0688843E06010BD0000CB
:100ED00010000200002801D000F01CB8704700008C
:100EE00010B5014602A000F05DF8012010BD000021
:100EF00053494752545245443A20526564697265D9
:100F000063743A2063616E2774206F70656E3A20B7
:100F10000000000001491820ABBEFEE726000200D9
:100F200000210160C0E9011070471020704703469E
:100F300040688C46002818BF88423CBF0346406882
:100F4000F8D318681844884207D00CF1030020F049
:100F50000700001D411A521A0146081D0A60FFF7DA
:100F600065BC10B50146C268900703D0900607D54E
:100F7000886A0AE000F03EF801210160881E10BD79
:100F80008B69486818440B69C01A91F848301BB146
:100F900091F84910401A10BD1103FCD50028FADD64
:100FA000401E10BD70B505460C460A2000E06D1CC1
:100FB00000F018F835B128780028F8D102E0641C58
:100FC00000F010F814B120780028F8D1BDE8704086
:100FD0000A2000F007B810B500F010F8BDE8104086
:100FE000FFF778BF08B569468DF800000320ABBE57
:100FF00008BD704700487047402E012010B50128F9
:1010000005D0002103A0FFF7CDFF012010BD09A1ED
:10101000F8E7000053494752544D454D3A204F756B
:1010200074206F662068656170206D656D6F7279E0
:10103000000000003A2048656170206D656D6F7298
:101040007920636F72727570746564000A4909686B
:1010500001F0010171B108498039096801F001010D
:1010600041B100BF4FF0604109680029FAD04FF04C
:101070006042107070470000800E00E010B500BFA5
:10108000502080F31188BFF34F8FBFF36F8F00BFE5
:1010900001F038FA18B14FF080500449086000BFE1
:1010A000002080F3118800BF10BD000004ED00E0B7
:1010B0001448006840F47000124908601248006843
:1010C00040F001001049086000200F490831086015
:1010D0000D4800680D4908400B4908600C48091D7F
:1010E0000860081F006820F48020091F08600020A5
:1010F00005490C3108604FF00060024980390860F2
:101100007047000088ED00E000380240FFFFF6FE67
:101110001030002401466FF40040084420B101283B
:1011200004D0022806D103E0002070470020FCE72D
:101130000020FAE74FF0FF30F7E701466FF4004078
:10114000084420B1012804D0022806D103E0002081
:1011500070470020FCE70020FAE70020F8E701468E
:101160006FF40040084420B1012804D0022806D1C1
:1011700003E0012070470120FCE70120FAE700208E
:10118000F8E7000070B504460D4614B94FF0FF3083
:1011900070BD20783A281AD10EA12046FFF782F9B7
:1011A00010B948F20100F3E70CA12046FFF77AF9E5
:1011B00010B948F20200EBE70AA12046FFF772F9E6
:1011C00010B948F20300E3E74FF0FF30E0E74FF0DB
:1011D000FF30DDE73A535444494E00003A5354443B
:1011E0004F5554003A5354444552520002466FF44E
:1011F0000040104420B1012805D0022809D105E0A3
:101200004FF0FF3070474FF0FF30FBE74FF0FF30FB
:10121000F8E74FF0FF30F5E72DE9F04106460C46C0
:10122000154698466FF40040304420B1012806D09E
:10123000022811D10EE04FF0FF30BDE8F08105E04B
:1012400014F8017B384600F07BFB6D1E002DF7D1B2
:101250000020F2E70020F0E74FF0FF30EDE78A686A
:10126000002A01DCFFF709BB521E8A604A68C0B23F
:10127000531C4B60107070471CB5002204210120E4
:1012800000F08CFE164908600846006800B3002094
:10129000012103469622CDE9001012A1124801F067
:1012A000F1F80020012103469622CDE900100FA19C
:1012B0000F4801F0E7F8002002210346C822CDE9DB
:1012C00000100CA10C4801F0DDF800F0BFFC04E0B8
:1012D0000AA0FFF731F800BFFEE700201CBD0000A8
:1012E0000000002054783100711D0008547832004D
:1012F000E91D000852783100D11A00084661696C76
:10130000656420746F206372656174652051756532
:10131000756521203A2D280A000000002DE9F041D2
:1013200005460E461C4807681C480068001D00F072
:101330000DFB50B91948006890F82C100120884026
:1013400017490968814316480160681C38B936B1ED
:1013500012480168091D134800F036FB1AE07C1999
:101360000E4800684460BC4207D20C480168091D61
:101370000D48006800F00EFB0CE008480168091DEC
:101380000A48006800F006FB09480068844201D260
:1013900007480460BDE8F081200000200C00002018
:1013A0002400002030010020140000201000002044
:1013B0003C00002010B5044600F012FB24480068F1
:1013C000401C234908602348006840B92148046054
:1013D0000846006801280DD100F066F90AE01E48B1
:1013E000006838B91B480068C06AE16A884201D8C1
:1013F0001848046019480068401C184908600846ED
:101400000068206494F82C10012088401449096871
:10141000084313490860E16A01EB8101114A02EBBC
:101420008100211D00F0D0FA00F004FB0A4800689A
:1014300068B108480068C06AE16A884207D24FF084
:10144000805009490860BFF34F8FBFF36F8F10BD05
:101450001C0000200C000020280000203800002084
:10146000240000207C00002004ED00E070B523E0A3
:1014700000F030FC1348006808B9012000E00020AB
:10148000054601F093F9BDB900F0AAFA0D48C0680D
:10149000C468201D00F05AFA0B480068401E0A4933
:1014A00008600A480068401E0849086000F0C2FA57
:1014B000204600F060F800BF044800680028D7D13B
:1014C00070BD00001C0100201C000020180000203E
:1014D00070B504460D46206C70B1216CE06808447C
:1014E000E0606168E068884201D32068E0602846D7
:1014F000226CE168FEF789FF70BD2DE9F0410446DA
:101500000F4615464FF00008A66B206C40B92068C6
:1015100060BB606801F09AF880460020606025E0BA
:101520007DB93946226CA068FEF76FFF216CA06878
:101530000844A060D4E90110884217D32068A06055
:1015400014E03946226CE068FEF75FFF216CE0682A
:10155000401AE0602168E068884203D2216C60682C
:10156000401AE060022D01D106B1761E701CA06306
:101570004046BDE8F08110B50446206B00F078FAD3
:10158000204600F075FA10BD094A22F00700094A0A
:1015900010600022074B5A60074A084B5A6000222D
:1015A0001A600146044A4A601A460A607047000001
:1015B0004C01002048000020F82B010050000020C2
:1015C00000BFFFF753FFFCE72DE9F04106460D464B
:1015D00017469846069C0DB9246000E02760E66334
:1015E00025640121204600F0E7FD84F84C80BDE829
:1015F000F0812DE9F05F82460F4690469B460A9E99
:101600000C9C4FEA8801A522206BFEF743FFA8F14E
:101610000100216B01EB800929F0070909F007009F
:1016200008B9012000E0002050B900BF502080F32D
:101630001188BFF34F8FBFF36F8F00BF00BFFEE76E
:10164000002507E0795D04F134004155785D00B96B
:1016500002E06D1C0A2DF5D300BF00213D2001558D
:10166000052E00D30426E662A6640020E064201D57
:1016700000F08DF904F1180000F089F92461C6F139
:101680000500A06164620020206584F854005A4679
:101690005146484600F03EF920600B9808B10B987F
:1016A0000460BDE8F09F000010B5002407E004EBE3
:1016B00084010F4A02EB810000F05CF9641C052CE8
:1016C000F5D30C4800F056F90B4800F053F90B48DD
:1016D00000F050F90A4800F04DF90A4800F04AF9C4
:1016E00004480949086004480849086010BD000022
:1016F0007C000020E0000020F40000200801002011
:101700001C010020300100201000002014000020E7
:1017100070B5054600F064F9A86B08B9012400E033
:10172000002400F087F9204670BD70B5054600F032
:1017300057F9A86BE96B884201D1012400E000242D
:1017400000F078F9204670BD0A490968096809B9AE
:10175000012100E0002121B14FF0FF31064A116064
:1017600006E004490968C968C868034A416811600D
:1017700070470000100000203C0000200E48006868
:10178000401C08B9012000E0002050B900BF5020E3
:1017900080F31188BFF34F8FBFF36F8F00BF00BF7F
:1017A000FEE700BF502080F31188BFF34F8FBFF3D7
:1017B0006F8F00BF00BFFEE76000002070B50446D9
:1017C00000F00EF994F9455010E0606A08B9012064
:1017D00000E0002038B904F1240000F09BFF18B1AC
:1017E00000F0A2F900E003E0681E45B2002DECDC39
:1017F00000BFFF2084F8450000F01CF900F0F0F86D
:1018000094F9445010E0206908B9012000E000205C
:1018100048B904F1100000F07DFF08B100F084F930
:10182000681E45B200E001E0002DECDC00BFFF20A7
:1018300084F8440000F0FEF870BD00002DE9F0418E
:1018400004464FF0000800F045FA2548006820B92A
:10185000FFF79AFE01202249086044B1083404F0E1
:10186000070020B104F00700C0F108000444002C78
:1018700031D01C4884422ED21B4F3846056801E007
:101880002F462D686868A04202D228680028F7D148
:10189000164885421FD0386800F10808286838606B
:1018A0006868001B102810D92E196868001B70602A
:1018B0006C6071680C4800E00068026852688A42F7
:1018C000FAD302683260066000BF09496868096897
:1018D000081A0749086000F069FF4046BDE8F0813A
:1018E0005C000020F82B0100480000205000002080
:1018F000580000200648006830B10549096801F128
:101900004C00C96C491C0160014800687047000028
:101910000C000020001F4FF080730360001F21F0B7
:1019200001030360001F054B036014380260001FB1
:101930006FF0020303602038704700007D17000835
:1019400000B503461846FFF781FB00BD01460A6952
:10195000D1E901309860D1E90103586050688842AC
:1019600001D188685060002008611068401E106036
:101970001068704700F1080141604FF0FF3181604D
:1019800000F10801C1600161002101607047002180
:101990000161704710B502460B685C1C0CB91069F8
:1019A00007E002F1080000E04068446824689C42B7
:1019B000FAD944684C604C68A160886041600A6153
:1019C0001468641C146010BD42684A6093688B60A0
:1019D000936859609160086103685B1C03607047FD
:1019E00000BF502080F31188BFF34F8FBFF36F8F7C
:1019F00000BF0E480068401C0C490860084600689B
:101A0000012812D10A480068C0B208B9012000E0DC
:101A1000002050B900BF502080F31188BFF34F8FD2
:101A2000BFF36F8F00BF00BFFEE77047600000206C
:101A300004ED00E00D48006850B900BF502080F36D
:101A40001188BFF34F8FBFF36F8F00BF00BFFEE75A
:101A500006480068401E054908600846006820B92D
:101A6000002080F3118800BF00BF70476000002095
:101A700070B506463546B6B1083D2C4600F02AF949
:101A80006168094800E00068026852688A42FAD337
:101A900002682260046005496068096808440349D7
:101AA000086000F083FE70BD480000205800002050
:101AB000064800684FF47A71B0FBF1F0401E4FF019
:101AC000E021486107200861704700006C00002099
:101AD0001CB500200190002400BF00234FF4FA72CF
:101AE00069460748006800F085FA04461CB905A05D
:101AF000FEF722FCF1E709A00099FEF71DFCECE7D8
:101B0000000000204177616974696E67204D65733C
:101B1000736167652E2E2E0A000000005278204D5A
:101B200073673A2025730A00012001490860704755
:101B30003000002070B504460D4654B900BF502057
:101B400080F31188BFF34F8FBFF36F8F00BF00BFCB
:101B5000FEE70548016818312046FFF71BFF012109
:101B60002846FFF7DBFB70BD0C00002070B5054672
:101B70002C46002D4BD02649E06A0968C96A884284
:101B800045D2A06900F0004028B921480068C06A29
:101B9000C0F10500A061E16A01EB81011D4A02EB81
:101BA00081016069884201D1012000E0002050B32A
:101BB000201DFFF7CBFE78B9E06A00EB80001549E5
:101BC00051F8200040B994F82C10012088401249A7
:101BD00009688143104801600D480068C06AE062EE
:101BE00094F82C10012088400B49096808430A49E1
:101BF0000860E16A01EB8101064A02EB8100211DC8
:101C0000FFF7E2FE03E002480068C06AE06270BDD0
:101C10000C0000207C0000202400002050B900BFF0
:101C2000502181F31188BFF34F8FBFF36F8F00BF37
:101C300000BFFEE703490968016003490968416084
:101C40007047000034000020200000201CB51A4816
:101C500000210B468222CDE9001018A1194800F09E
:101C600011FC0446012C15D100BF502080F31188CF
:101C7000BFF34F8FBFF36F8F00BF4FF0FF3012499C
:101C8000086001201149086000201149086000F037
:101C9000E7F810E0601C08B1012000E0002050B916
:101CA00000BF502080F31188BFF34F8FBFF36F8FB9
:101CB00000BF00BFFEE71CBD4000002049444C456A
:101CC00000000000C11500083C0000202800002092
:101CD0002000002002480068401C0149086070474D
:101CE000440000201D48006818B101201C4908600C
:101CF00032E000201A4908601A480068B0FA80F003
:101D0000C0F11F0101EB8100174A52F8200008B111
:101D1000012000E0002050B900BF502080F311885E
:101D2000BFF34F8FBFF36F8F00BF00BFFEE701EB24
:101D300081020D4B03EB820042685268426000F161
:101D400008024368934202D1426852684260426886
:101D5000D268064B1A6000BF7047000044000020A4
:101D600030000020240000207C0000200C00002017
:101D700008B500200090002400BF0DA0FEF7DCFA9B
:101D8000002302220F491048006800F061FA04465F
:101D900014B90EA0FEF7D0FA0020009002E00098DF
:101DA000401C00900F4900988842E6DAF7E70000EF
:101DB00053656E64696E67204D73672D5461736B54
:101DC0002D310A00040000200000002053656E64DD
:101DD000696E67206661696C6564205461736B2D60
:101DE00031210A0020A1070008B50020009000243E
:101DF00000BF0DA0FEF7A0FA002302220F491048F1
:101E0000006800F025FA044614B90EA0FEF794FA13
:101E10000020009002E00098401C00900F490098BC
:101E20008842E6DAF7E7000053656E64696E672062
:101E30004D73672D5461736B2D320A00080000202A
:101E40000000002053656E64696E67206661696CEE
:101E50006564205461736B2D320A000020A10700D5
:101E60001CB5474800684749884201D0012000E07E
:101E7000002050B900BF502080F31188BFF34F8F6E
:101E8000BFF36F8F00BF00BFFEE73D4800683D49CC
:101E9000491E884201D0012000E0002050B900BF57
:101EA000502080F31188BFF34F8FBFF36F8F00BFB7
:101EB00000BFFEE73449084600780190FF200A463B
:101EC00010700846007800909DF8000000F0F000C7
:101ED0009DF80020904201D1012000E0002050B97F
:101EE00000BF502080F31188BFF34F8FBFF36F8F77
:101EF00000BF00BFFEE79DF8000000F05000234A3D
:101F000010700720224A106009E021480068401E36
:101F10001F4A10609DF800004006000E00909DF8DA
:101F2000000000F080008028EFD01948006800020F
:101F3000174A10601046008800F4E0601060124AF2
:101F4000019810700E482030006840F470000C4971
:101F5000203108600846006840F070400860FFF7D4
:101F6000A7FD00200B490860FEF78AF90A480068BF
:101F700040F0404008490860FEF772F900201CBD9F
:101F800000ED00E071C20F4100E400E064000020B9
:101F9000680000206000002034EF00E02DE9F843E5
:101FA00005460E4690460DB1012000E0002050B9D4
:101FB00000BF502080F31188BFF34F8FBFF36F8FA6
:101FC00000BF00BFFEE70EB9002701E005FB06F7E2
:101FD00007F15000FFF732FC044644B104F1500908
:101FE00043464A46314628460094FFF7EDFA20461C
:101FF000BDE8F8832DE9FF4782B005460E461F462F
:102000004FF0000A2C4654B900BF502080F31188CD
:10201000BFF34F8FBFF36F8F00BF00BFFEE70EB956
:10202000206C08B9012000E0002050B900BF50200A
:1020300080F31188BFF34F8FBFF36F8F00BF00BFD6
:10204000FEE700F04FFA08B9049808B9012000E053
:10205000002050B900BF502080F31188BFF34F8F8C
:10206000BFF36F8F00BF00BFFEE700BFFFF7B8FCF4
:10207000D4F83890B9F1000F3DD0D4F80C80314637
:102080002046FFF725FADFB9A9F10100A063206817
:1020900010B9FFF72FFC6060206908B9012000E04B
:1020A000002010BB04F1100000F034FBE8B14FF049
:1020B000805040490860BFF34F8FBFF36F8F14E02B
:1020C000C4F80C80606A08B9012000E0002060B903
:1020D00004F1240000F01EFB38B14FF08050354968
:1020E0000860BFF34F8FBFF36F8FFFF7A3FC012092
:1020F00006B0BDE8F087049818B9FFF79BFC0020F4
:10210000F6E7BAF1000F04D16846FFF787FD4FF0FC
:10211000010AFFF78FFCFFF7DDFDFFF761FC94F983
:102120004400401C10B9002084F8440094F9450094
:10213000401C10B9002084F84500FFF77BFC04A97F
:10214000684600F059F940BB2046FFF7E1FAF0B1CC
:10215000206830B9FFF744FC6068FFF707FDFFF720
:1021600069FC04F124000499FFF7E4FC2046FFF722
:1021700025FB00F01BFB00287FF478AF4FF0805068
:102180000C490860BFF34F8FBFF36F8F6EE7204697
:10219000FFF714FB00F00AFB68E72046FFF70EFB91
:1021A00000F004FB2046FFF7B3FA0028EED0002031
:1021B0009EE7000004ED00E070B505460E462C4693
:1021C00054B900BF502080F31188BFF34F8FBFF385
:1021D0006F8F00BF00BFFEE7FFF702FCD4E90F12CC
:1021E000206801FB020060600020A0632068A060FE
:1021F000E06B401E226C216800FB0210E060FF20B3
:1022000084F8440084F845009EB9206908B901208B
:1022100000E00020A8B904F1100000F07BFA80B1C2
:102220004FF0805009490860BFF34F8FBFF36F8FA5
:1022300007E004F11000FFF79DFB04F12400FFF715
:1022400099FBFFF7F7FB012070BD000004ED00E0F3
:102250002DE9FF4383B0064688461D464FF000092E
:10226000344654B900BF502080F31188BFF34F8F1C
:10227000BFF36F8F00BF00BFFEE7B8F1000F01D1C1
:10228000206C08B9012000E0002050B900BF5020A8
:1022900080F31188BFF34F8FBFF36F8F00BF00BF74
:1022A000FEE7022D02D1E06B012801D1012000E000
:1022B000002050B900BF502080F31188BFF34F8F2A
:1022C000BFF36F8F00BF00BFFEE700F00BF908B946
:1022D000059808B9012000E0002050B900BF502047
:1022E00080F31188BFF34F8FBFF36F8F00BF00BF24
:1022F000FEE700BFFFF774FBA06BE16B884201D3E0
:10230000022D28D12A4641462046FFF7F6F8074617
:10231000606A08B9012000E0002068B904F12400D7
:1023200000F0F8F988B14FF0805032490860BFF3EF
:102330004F8FBFF36F8F08E03FB14FF080502D49B2
:102340000860BFF34F8FBFF36F8FFFF773FB012060
:1023500007B0BDE8F083059818B9FFF76BFB0020C4
:10236000F6E7B9F1000F04D101A8FFF757FC4FF0D1
:102370000109FFF75FFBFFF7ADFCFFF731FB94F9B5
:102380004400401C10B9002084F8440094F9450032
:10239000401C10B9002084F84500FFF74BFB05A94D
:1023A00001A800F029F8F0B92046FFF7BEF9A0B166
:1023B00004F110000599FFF7BDFB2046FFF7FEF979
:1023C00000F0F4F9002895D14FF0805009490860D9
:1023D000BFF34F8FBFF36F8F8CE72046FFF7EEF907
:1023E00000F0E4F986E72046FFF7E8F900F0DEF9AF
:1023F0000020ADE704ED00E070B504460D4654B989
:1024000000BF502080F31188BFF34F8FBFF36F8F51
:1024100000BF00BFFEE755B900BF502080F3118810
:10242000BFF34F8FBFF36F8F00BF00BFFEE7FFF713
:10243000D7FA124803682868401C08B9002619E03A
:102440000F4920680968884204D06068984201D822
:1024500001260FE06068181A2968884209D22868A6
:102460006168591A401A28602046FFF7D7FB0026FA
:1024700000E00126FFF7DEFA304670BD20000020A4
:10248000340000202DE9FF4F85B08046894617466D
:10249000DDE912ABB800FFF7D1F9064656B1582076
:1024A000FFF7CCF904460CB1266304E03046FFF791
:1024B000DFFA00E000247CB10020CDE900ABCDE9DB
:1024C00002403A4649464046089BFFF792F82046AC
:1024D000FEF770FF012501E04FF0FF35284609B0F7
:1024E000BDE8F08F0549096809B9012005E00449F4
:1024F000096809B9022000E0002070472800002088
:10250000440000202DE9F0414FF0000844480068E5
:10251000002877D143480068451C4248056015BB38
:1025200041480068006808B9012000E0002050B967
:1025300000BF502080F31188BFF34F8FBFF36F8F20
:1025400000BF00BFFEE738480768384800683649D2
:1025500008603648076036480068401C3449086007
:10256000FFF7F2F800BF3348006885423CD300BF54
:102570002D480068006808B9012000E0002020B163
:102580004FF0FF302B4908602DE027480068C068F5
:10259000C4686668B54202D22648066023E0201D62
:1025A000FFF7D4F9A06A18B104F11800FFF7CEF9CB
:1025B00094F82C10012088401F49096808431E49DF
:1025C0000860E16A01EB81011C4A02EB8100211DD8
:1025D000FFF7FAF91A49E06A0968C96A8842C7D35D
:1025E0004FF00108C4E700BF15480068C06A00EB5F
:1025F0008000124951F82000012801D94FF001084C
:1026000005E0FFE70F480068401C0E4908600E48CF
:10261000006808B14FF001084046BDE8F0810000B5
:1026200044000020200000201000002014000020A2
:10263000340000203C000020240000207C0000200A
:102640000C0000202C0000203000002070B5054652
:102650002C460026002D55D02B480068844201D11D
:10266000012000E0002050B900BF502080F3118805
:10267000BFF34F8FBFF36F8F00BF00BFFEE7E06C6B
:1026800050B900BF502080F31188BFF34F8FBFF3C4
:102690006F8F00BF00BFFEE7E06C401EE064A16CDE
:1026A000E06A88422ED0E06C60BB201DFFF74EF937
:1026B00078B9E06A00EB8000144951F8200040B975
:1026C00094F82C1001208840114909688143104872
:1026D0000160A06CE062E06AC0F10500A06194F8BE
:1026E0002C10012088400A490968084308490860FD
:1026F000E16A01EB8101054A02EB8100211DFFF730
:1027000063F90126304670BD0C0000207C000020DB
:102710002400002070B50646F068C46854B900BFB4
:10272000502080F31188BFF34F8FBFF36F8F00BF2E
:1027300000BFFEE704F11800FFF708F9154800682C
:10274000A8B9201DFFF702F994F82C100120884049
:1027500011490968084310490860E16A01EB8101E9
:102760000E4A02EB8100211DFFF72EF904E004F16F
:1027700018010B48FFF728F90A49E06A0968C96A95
:10278000884204D9012501200749086000E000259E
:10279000284670BD44000020240000207C0000205A
:1027A000080100200C0000203000002070B500243B
:1027B00000263648006850B900BF502080F31188C9
:1027C000BFF34F8FBFF36F8F00BF00BFFEE7FFF770
:1027D00007F92E480068401E2C490860084600682A
:1027E00000284FD12A48006800284BD024E029480F
:1027F000C068C46804F11800FFF7A8F8201DFFF7AF
:10280000A5F894F82C100120884023490968084352
:1028100021490860E16A01EB8101204A02EB810055
:10282000211DFFF7D1F81E49E06A0968C96A88428C
:1028300002D301201B4908601648006808B901202E
:1028400000E000200028D2D00CB1FEF77DFF164832
:10285000056865B100BFFFF755FE10B101201149B1
:1028600008606D1E002DF6D100200F4908600D484C
:10287000006838B1012630070C490860BFF34F8F5C
:10288000BFF36F8FFFF7D6F8304670BD44000020CD
:102890001C00002008010020240000207C000020F3
:1028A0000C000020300000202C00002004ED00E08F
:1028B0004FF04070E1EE100A70473A535444494ECD
:1028C000003A5354444F5554003A535444455252DD
:1028D000000000005461736B2D31204D65737361EE
:1028E00067652E2E2E0000005461736B2D32204D33
:1028F0006573736167652E2E2E0000001C29000889
:10290000000000207C000000C40100089829000895
:102910007C00002024340100E001000800000000D9
:10292000D4280008E828000800000000000000008B
:102930000000000000000000000000000000000097
:102940000000000000000000000000000000000087
:102950000000000000000000000000000000000077
:102960000000000000000000000000000000000067
:1029700000000000F82B010000000000AAAAAAAA8B
:1029800000000000000000000024F400000000002F
:0829900000000000000000003F
:040000050800018965
:00000001FF
